:020000040800F2
:10000000E0290524BD0200080D630008515A0008CC
:10001000C9020008F91A0008899B000800000000C6
:100020000000000000000000000000005D890008E2
:10003000091E00080000000057030008258E000874
:10004000D7020008D7020008D7020008D70200082C
:10005000D7020008D7020008D7020008D70200081C
:10006000D7020008D7020008D7020008D70200080C
:10007000D7020008D7020008D7020008D7020008FC
:10008000D7020008D7020008D7020008D7020008EC
:10009000D7020008D7020008D7020008D7020008DC
:1000A000D7020008D7020008D7020008D7020008CC
:1000B000CD8E0008258F0008D7020008D70200085F
:1000C000D7020008D7020008D7020008D7020008AC
:1000D000D7020008399B0008D7020008D7020008A1
:1000E000D7020008D702000800000000D70200086D
:1000F000D7020008D7020008D7020008D70200087C
:10010000D7020008D7020008D7020008D70200086B
:1001100095930008D7020008818F0008D7020008D5
:10012000D7020008D7020008D7020008D70200084B
:10013000D70200082D1E0008D7020008D7020008C9
:1001400000000000000000000000000000000000AF
:10015000D7020008D7020008D7020008D70200081B
:10016000D7020008D7020008D7020008D70200080B
:10017000D7020008D7020008D7020008D7020008FB
:10018000D7020008D7020008D7020008D7020008EB
:10019000D7020008D7020008D7020008D7020008DB
:1001A000D7020008D7020008D7020008D7020008CB
:1001B000D7020008D7020008D7020008D7020008BB
:1001C000D7020008D7020008D7020008D7020008AB
:1001D000D7020008D7020008D7020008D70200089B
:1001E000D7020008D7020008D7020008D70200088B
:1001F000D7020008D7020008D7020008D70200087B
:10020000D7020008D7020008D7020008D70200086A
:10021000D7020008D7020008D7020008D70200085A
:10022000D7020008D7020008D7020008000000002B
:10023000D7020008D702000800000000D70200081B
:10024000D7020008D7020008D7020008D70200082A
:10025000D7020008D7020008D7020008D70200081A
:10026000D7020008D7020008D7020008D70200080A
:10027000D7020008D7020008D702000800000000DB
:10028000D702000800000000D702000800000000AC
:1002900000000000D7020008DFF80CD001F098F849
:1002A0000048004785F20008E029052430BF72B6F7
:1002B000704762B6704780F30888704706488047E9
:1002C00006480047FEE7FEE7FEE7FEE7FEE7FEE73B
:1002D000FEE7FEE7FEE7FEE7498E00089902000808
:1002E000EFF3098141B1F1EE101A40F8041D20ED41
:1002F000200A29490A6810607047B0EC200A02C839
:10030000E1EE101A25490A6810607047EFF310807B
:1003100072B6704780F31088704721484FF0FF0194
:100320000170002080F309881E48016881F3088865
:100330001D48012101701D484FF08051016062B6D7
:10034000FEE71A484FF080510160704717484FF0A0
:1003500080510160704772B6EFF3098028B12038F0
:1003600080E8F00F0C490968086000B51048804724
:100370005DF804EB0F4810490A78027006480749F7
:100380000A680260106890E8F00F203080F3098856
:100390004EF0F40E62B670478001002488010024FC
:1003A00022ED00E0A40100246701002404ED00E038
:1003B000816E00086401002465010024094910B51C
:1003C00008784C1C18B1401E0870205C10BD00213C
:1003D0000720ABBE207010BD02490878421C0A708D
:1003E00070470000600300244FF0FF30704700208A
:1003F00070474FF0FF307047002070470020704773
:100400004FF0FF3070474FF0FF3070474FF0FF3034
:1004100070474FF0FF3070474FF0FF3070472DE9C5
:10042000F05F0546002092469B4688460646814678
:1004300040241BE0284641464746224600F04CFA3D
:1004400053465A46C01A914110D3114618462246C7
:1004500000F033FA2D1A67EB01084F4622460120BF
:10046000002100F02AFA17EB00094E41201EA4F1EA
:100470000104DFDC484631462A464346BDE8F09F8A
:100480002DE9F0410024061B254671F1000605DA2E
:1004900001240027D0EB070067EB0101161E73F162
:1004A000000605DA0027D2EB0702012567EB0303FC
:1004B000FFF7B5FF86460E4617469C46AC4204D071
:1004C0000025D0EB050E65EB010624B10020D2EB30
:1004D000000760EB030C704631463A466346BDE8C0
:1004E000F0810000004870476C30010810B50446E8
:1004F000FFF7F8FF0068005D00F0010010BD4FF04D
:10050000FF30704710B5441A0346944209D284184C
:10051000114403E011F8013D04F8013D521EF9D2E7
:1005200010BD40EA0104A40703D009E010C9121F5E
:1005300010C3042AFAD203E011F8014B03F8014B6F
:10054000521EF9D210BDD2B201E000F8012B491EB3
:10055000FBD270470022F6E710B513460A46044660
:100560001946FFF7F0FF204610BD421E12F8013F6A
:10057000002BFBD111F8013B02F8013B002BF9D114
:10058000704730B505462A460B4612F8010B13F8A2
:10059000014B08B1A042F8D01CB1002802D06D1C5C
:1005A000F1E7284630BD10B5044604E00B7800F8AA
:1005B000013B03B1491C521EF8D2204610BD10B5B4
:1005C00003460020904201D20C5C1C540C5C002CB1
:1005D00001D0401CF6E710BDCAB2401E10F8011F42
:1005E0008A4202D00029F9D100207047421C10F83D
:1005F000011B0029FBD1801A704710B5002200E0D2
:10060000521C835C8C5CA34201D1002BF8D1D8B280
:10061000E1B2401A10BDCBB203E00178994203D099
:10062000401C521EF9D20020704730B5044600200D
:10063000034600E05B1C934203D2E05CCD5C401BB0
:10064000F8D030BD10B5044600E0401C0378002B04
:10065000FBD100E0401C521E04D311F8013B037093
:10066000002BF7D100210170204610BDFFF7C5BF58
:10067000034611F8012B00F8012B002AF9D1184686
:10068000704730B505460020034600E05B1C9342EE
:1006900005D2EC5CC85C201A01D1002CF6D130BD2B
:1006A00070B50F4D00B92868002412E00A4602E038
:1006B0009E4203D0521C1378002BF9D1DAB22243A8
:1006C00005D02BB124B1002100F8011B04E0044641
:1006D000401C0678002EE9D12860204670BD00003D
:1006E0006C0300240246C9B200E0401C0378002BD2
:1006F000FBD102E003788B4203D0401E9042F9D236
:100700000020704730B503461D783DB10A4612F807
:10071000014B1CB1AC42FAD15B1CF5E7181A30BD95
:1007200030B50546002008E00A4602E0A34207D0A3
:10073000521C1378002BF9D1401C2C5C002CF3D1F7
:1007400030BD10B508E00A4602E0A34208D0521CB2
:100750001378002BF9D1401C0478002CF3D1002031
:1007600010BD000007280FD2DFE800F00406080ED5
:100770000E0C0A0005A070470AA0704713A070472E
:100780001DA0704722A070472BA070474E6F2065B8
:1007900072726F7220286572726E6F203D20302950
:1007A0000000000045444F4D202D2066756E637497
:1007B000696F6E20617267756D656E74206F7574F8
:1007C000206F662072616E67650000004552414EE1
:1007D0004745202D2066756E6374696F6E207265C3
:1007E00073756C74206E6F742072657072657365BA
:1007F0006E7461626C650000454E4F4D454D202D75
:10080000206F7574206F66206D656D6F72790000C2
:1008100045494E56414C202D20696E76616C6964C5
:1008200020617267756D656E7420746F2066756ED9
:100830006374696F6E000000556E6B6E6F776E208B
:100840006572726F7200000010B54843044609F0EB
:100850008FFA002805D00021002C02D0641E01551B
:10086000FAE710BD00B589B000926A4600F0EEFBD1
:1008700009B000BD70B5064609F048FA046805469F
:100880000A220021304600F0A9FB2C6070BD30B573
:100890000B46014600202022012409E021FA02F53E
:1008A0009D4205D303FA02F5491B04FA02F52844D8
:1008B000151EA2F10102F1DC30BD202A04DB203A32
:1008C00000FA02F1002070479140C2F1200320FAA3
:1008D00003F3194390407047202A04DB203A21FAA1
:1008E00002F00021704721FA02F3D040C2F1200249
:1008F00091400843194670472DE9FF4F1C4681B0CF
:100900000021D4E9016791464FF0FF358A468846B9
:10091000A1696D1C02988847216A83468847002890
:10092000F6D1BBF1FF3F0CD026F4C066002F1ADDD4
:10093000700615D5BBF12B0F0AD0BBF12D0F0FD1CF
:1009400004E04FF0FF3005B0BDE8F08F46F480665C
:10095000A1696D1C029888477F1E8346002F02DD27
:10096000BBF1300F03D0B9F1000F2AD025E0A16907
:100970006D1C46F400767F1E029888478346002F40
:1009800005DDBBF1780F06D0BBF1580F03D0B9F1EC
:10099000000F10D011E0B9F1000F02D0B9F1100F23
:1009A0000BD1A1696D1C26F400767F1E0298884742
:1009B0008346102000E0082081464FEAE97000904D
:1009C00017E00A20F8E74346AAFB092803FB098041
:1009D000DDF800C07F1E0AFB0C0112EB0B0A41EB95
:1009E000EB78A16946F4007605F101050298884785
:1009F0008346002F06DD4946584600F00DFD5FEAAC
:100A0000000BE0D5E16902988847B00502D46FF089
:100A1000010098E7F00718D1700610D5700551460F
:100A200005D50023D1EB030163EB080200E0424649
:100A30002068031D23600068C0E9001205E02068FB
:100A4000011D21600068C0E900A828467BE72DE968
:100A5000FF5F1D464FF0FF3BD5E9014691465F46DB
:100A60004FF00008A9697F1C01988847296A8246CF
:100A700088470028F6D1BAF1FF3F0CD024F4C064B7
:100A8000002E19DD600614D5BAF12B0F09D0BAF18A
:100A90002D0F0ED103E0584604B0BDE8F09F44F49A
:100AA0008064A9697F1C01988847761E8246002EC3
:100AB00002DDBAF1300F03D0B9F1000F26D032E0D9
:100AC000A969761E44F400747F1C01988847824609
:100AD000002E05DDBAF1780F06D0BAF1580F03D019
:100AE000B9F1000F10D01EE0B9F1000F02D0B9F13A
:100AF000100F18D1A969761E24F400747F1C019888
:100B000088478246102002E0082000E00A20814643
:100B100009E008FB0908A969761E44F400747F1CEB
:100B2000019888478246002E05DD4946504600F070
:100B300073FC0028EDDAE96901988847A00502D422
:100B40006FF00100A8E7E00725D1600613D5600526
:100B500002D5C8F1000000E0404629680A1D2A605D
:100B60000968220501D5087015E0220701D5088023
:100B700011E008600FE02868011D29600068210568
:100B800002D580F8008006E0210702D5A0F8008099
:100B900001E0C0F8008038467EE72DE9FF5FD2E92A
:100BA00001A74FF00008916999461446DDF838B066
:100BB000464601988847054659EA0B0005D009E0EA
:100BC000A169761C019888470546216A284688470E
:100BD0000028F5D1681C03D05FEACA7005D015E083
:100BE0004FF0FF3004B0BDE8F09F2068011D216088
:100BF000D0F800800AE05FEACA7001D108F8015B12
:100C0000A169761C7F1E019888470546002F1ADDD2
:100C1000681C18D0B9F1000F0DD0E81705EBD060B3
:100C2000421120F01F0059F822102A1A012090408A
:100C30000142E0D107E0BBF1000FDCD1216A284678
:100C400088470028D7D0E16901988847BBF1000F99
:100C500007D1002E05DD5FEACA7002D1002188F8B5
:100C60000010A068B84203DDBBF1000F03D017B13C
:100C70006FF00100B6E73046B4E700002DE9FF4F02
:100C8000087883B09946FF2805D0491C2D2804D048
:100C90000024002008E000200BE00124F9E700EB2D
:100CA000800003EB4000491C0B78FF2BF7D104B107
:100CB000404200230293147819461D462D2C01D082
:100CC0002B2C04D1521C2D2C13D000240294AA46A4
:100CD0001478FF2C0FD00A25A3FB057801FB0581B2
:100CE0004FF0000C03FB0C11521CE3194AEB0101FD
:100CF000EEE70124EAE7814453EA010002D019F546
:100D0000C87F06DA03980021C0E9001107B0BDE8EA
:100D1000F08F0025AE4E2F46DFF8B882184600F05F
:100D200049FCCDE90001B9F1000002DAC9F1000483
:100D300000E004460023A74A1AEB030B42EB045AD7
:100D400012E0E00707D02A4633463846414600F015
:100D50002EFA074688462A4633461046194600F0C2
:100D600026FA05460E466410002CEAD1DDE90001A2
:100D7000B9F1000F5A46534606DA00F08AFA3A46AD
:100D8000434600F086FA05E000F011FA3A46434681
:100D900000F00DFA029A0AB181F00041039AC2E90B
:100DA0000001B3E72DE9FF4F1F468DB0D7E901469B
:100DB0004FF0FF382E2045464FF000090B90B969DF
:100DC0006D1C0E988847396A824688470028F6D1FC
:100DD000BAF1FF3F0AD024F4D064002E11DDBAF13D
:100DE0002B0F08D0BAF12D0F0BD102E0404611B005
:100DF0008DE744F48064B9696D1C0E98884782467B
:100E0000761E6946600501D52D2000E02B208DF867
:100E1000000001F1010B0DF1200809E0B9696D1C1A
:100E20000E98884782460F9844F40074761E056039
:100E3000002E02DDBAF1300FF0D00B998A453ED179
:100E400044F0800406E00F99681CA9F1010944F4FC
:100E500000740860B9696D1C761E0E98884782463A
:100E60003028F0D02BE00B998A4505D1200603D419
:100E700044F08004761E18E0504609F073F808B379
:100E80000DF11301761E44F400748B4508D2AAF1CB
:100E900030000BF8010B200607D5A9F1010003E093
:100EA000200602D409F101008146A00502D50F9960
:100EB000681C0860B9696D1C0E9888478246002E30
:100EC000D1DC53E0002E51DDBAF1650F02D0BAF14A
:100ED000450F4BD1A00549D5B9696D1C24F4407468
:100EE000761E0E9888478246002E0CDD2B2804D0F3
:100EF000BAF12D0F07D144F48074B9696D1C0E98B6
:100F000088478246761EE00501D52D2100E02B2181
:100F100008F8011BCDF82C8021E00DF12901761E87
:100F200044F4007488450CD2AAF1300010F0FF00A0
:100F300088F8000002D10B99884509D908F1010809
:100F400006E0E00501D5244801E042F20F70814639
:100F5000B9696D1C0E98884782460F980560002E6F
:100F600004DD504608F0FEFF0028D6D1F9690E983E
:100F70008847FF208BF8000088F8000000200690CA
:100F800007904B466A4608A906A8FFF777FEA0051A
:100F900002D46FF001002AE714F0240F0AD0E00712
:100FA00014D1DDE906123868031D3B600068C0E912
:100FB00000120BE0DDE9060100F008FB0146E00746
:100FC00004D13868021D3A600068016028460EE7C7
:100FD000000014400000F03FF1D8FFFF2DE9F0477A
:100FE00091460F4680460446002614F8015B2DB159
:100FF000FFF778FA0068405DC007F6D12B2D02D0CC
:101000002D2D18D0641E4A463946204600F026FA97
:1010100027B13968A14201D1C7F8008071054FF0AE
:1010200002040BD54042002803DD08F06FFE046087
:10103000A007BDE8F08746F48066E4E70028F8DA08
:1010400008F064FE04606FF00040F2E7024B936129
:10105000024BD36100F0F4B9BD030008D9030008C6
:101060002DE9FE4F804681EA0300C00F0C46009038
:1010700021F0004123F00045B8EB0200A94105D260
:101080004046214690461C460B46024623F000404F
:10109000104347D0270DC7F30A00C3F30A5102904B
:1010A000401A019040286BDAC3F3130040F4801B10
:1010B0000098924620B10023D2EB030A63EB0B0B9E
:1010C00001985946C0F140025046FFF7F6FB06462C
:1010D0000D4650465946019A00F08CF910EB080075
:1010E0006141002487EA115284EAE7731A4340D031
:1010F000009A62B3019A012A4FEA075215DC001BDD
:1011000061EB02014FF0004202EA0752CDE90042D2
:10111000001C41F5801132462B4600F0FDF903B06A
:10112000BDE8F08F40462146F9E7001B61EB020164
:10113000001C41F5801300185B412018A2F5001730
:1011400047EB030140EAD570B6196D4111E06D0817
:101150004FEA360645EAC0754FEA0752001B61EBBD
:101160000201001C41F5801149084FEA30000019C6
:10117000514132462B4603B0BDE8F04F00F0BDB9F7
:101180000098012240000023D0EB020263EBE073E1
:10119000009821464FEAE074B8EB000061EB0401CF
:1011A000E9E783F000435BE781F0004158E72DE970
:1011B000FE4F81EA030404F0004421F00041009452
:1011C0004FF0000B23F0004350EA01045ED052EAD6
:1011D00003045BD0C3F30A54C1F30A552C44A4F2B0
:1011E000F3340194A0FB0254C1F3130141F48011C4
:1011F000C3F3130343F4801301FB024400FB034ECB
:10120000840A970A44EA815447EA8357A4FB076893
:1012100002958D0A05FB07854FEA932C04FB0C54BD
:101220002705029D4FEA065847EA1637B5EB080531
:101230006EEB070C870E920E47EA811742EA831283
:10124000A7FB0201B6EB0B0164EB00042B0D43EA94
:101250000C335E1844EB1C50DA465146E7FB0201A2
:10126000C5F313044FEA0B3343EA14534FEA043235
:10127000019C43EA0603A4F10C040294009CCDE90E
:1012800000B400F049F903B0BDE8F08F002001463A
:10129000F9E72DE9F04D81EA030404F0004B21F059
:1012A000004514464FF0000A23F0004150EA0502C1
:1012B00020D054EA01021DD0C5F30A570246C5F3F7
:1012C0001303C1F31300C1F30A5640F4801543F42D
:1012D0008013A7EB0608101BD64608F2FD3873EB07
:1012E000050002D308F1010801E092185B41B8F152
:1012F000000F03DA00200146BDE8F08D00204FF416
:101300008011064684460EE0171B73EB050705D3D4
:10131000121B63EB050306434CEA010C49084FEA34
:10132000300092185B4150EA0107EDD152EA030008
:1013300012D082EA040083EA0501084305D0101B9D
:10134000AB4106D20122002306E000224FF0004309
:1013500002E06FF0010253101AEB06004CEB08514B
:1013600010EB0A0041EB0B01BDE8F04D00F0C5B8F1
:10137000C1F30A52C1F3130140F2FF3341F480116B
:101380009A4202DA00200146704740F233439A4203
:10139000A2F2334202DC5242FFF79EBAFFF78DBA47
:1013A00030B5041E71F1000404DB4FF000444042EC
:1013B00064EB0101141E73F1000405DB1C464FF0C1
:1013C0000043524263EB0403994208BF904230BD90
:1013D000064C074D06E0E06840F0010394E8070082
:1013E00098471034AC42F6D3FEF75AFFB0320108EA
:1013F000D0320108202A06DBCB17203A41FA02F04E
:1014000043EAE07306E041FA02F3D040C2F1200261
:1014100091400843194670473A2800D2303820F0EE
:101420002002412A01D3A2F13700884201D34FF0B4
:10143000FF30704702681144137801601846704706
:10144000D1600449516104491162002111611146C2
:1014500000F0D8B835140008ED0400082DE9F05F5D
:1014600082460078002715468B460AF10104B946EA
:10147000302801D09DB113E014F8010B0127782822
:1014800003D0582801D045B10AE00DB1102D07D185
:101490000027102514F8010B02E0082500E00A25BA
:1014A0000026B0460EE005FB080005FB06F101270B
:1014B00001EB10461FFA80F8B6F5803F00D3B9461D
:1014C00014F8010B2946FFF7A7FF0028EBDABBF160
:1014D000000F05D00FB1641E00E05446CBF8004069
:1014E000B9F1000F06D008F011FC02210160C81EFE
:1014F000BDE8F09F48EA0640FAE710B5141E73F104
:10150000000408DA401C41F1000192185B411A43C3
:1015100001D120F0010010BD2DE9F04D92469B460F
:1015200011B1B1FA81F202E0B0FA80F220329046B5
:10153000FFF7C3F904460F4640EA0A0041EA0B01EF
:1015400053465A46084313D0114653EA010019D0B6
:10155000C8F140025046FFF7BFF905460E46504617
:1015600059464246FFF7A9F9084305D0012004E097
:1015700020463946BDE8F08D0020054346EAE07676
:101580002C4337430A986305E40AA0EB08000022C5
:10159000FD0A44EA47540A3002D500200146E9E733
:1015A000010510196941DDE9084500196941BDE8E7
:1015B000F04DA2E70EB540F2334202920022CDE98F
:1015C00000221346FFF7A8FF03B000BD01F000435F
:1015D00030B421F0004150EA010206D00A0DA2F514
:1015E0006072C1F31301002A02DC30BC0020704796
:1015F000440F44EAC104C100E01830BC00EBC25003
:1016000000F096B92DE9F34F8BB04FF0000801F1CF
:101610000C000C464FF0010B46460DF1080A0190F4
:101620006269012101989047051E2DD0252D2CD0EF
:10163000216A8847C0B16269012101989047216AF7
:1016400088470028F7D1411E62690198904700E061
:10165000761CA1690B988847216A88470028F7D132
:10166000E1690B988847DBE7A1690B988847074633
:10167000A84201D1761CD3E7E1690B9888477F1C0B
:1016800002D1B8F1000F6FD046E1002762693D46F4
:101690003946019890472A2804D1626901210198AE
:1016A00090470125DFF884926269012101989047F3
:1016B000A0F130010A290AD24F45E5DC07EB87018A
:1016C00000EB4107303FDFD445F01005ECE7E906B9
:1016D00001D46FF000476C280AD04C2814D0682839
:1016E00015D06A280DD074281CD07A281AD01DE095
:1016F00062690121019890476C2802D045F00405E9
:1017000014E045F002050DE045F020050AE06269AD
:10171000012101989047682802D045F0080505E0AE
:1017200045F400656269012101989047C4E90157B9
:1017300065283DD019DC58287AD00CDC452837D0F4
:1017400004DC252826D0412831D131E046282FD08D
:1017500047282CD12CE05B2877D0612828D063283B
:101760007CD0642823D15AE0D0E06F2848D008DC30
:1017700066281DD067281BD0692821D06E2816D175
:1017800027E0702845D0732868D0752847D078287E
:101790000DD14DE0A1690B988847054625283FF4F7
:1017A00069AFE1690B9888476D1C3FF46AAFB3E0FD
:1017B00023466A466FF001000B99FFF7F3FA9EE0AB
:1017C00045F040006060A80723464FF0000236D481
:1017D0003EE0E8077FF447AF2068011D2160006804
:1017E000290501D506701BE7290701D5068017E7F3
:1017F000A90703D5F117C0E9006111E706600FE7FB
:1018000045F040006060A80723464FF0080216D458
:101810001EE040F60E0125EA0100606016E045F08A
:1018200040006060A80723464FF00A0207D40FE08B
:1018300045F040006060A80708D5234610226FF0ED
:1018400001000B99FFF758F859E007E023461022F2
:101850006FF001000B99FFF7FAF850E04FF0000924
:101860004F464B46632802D05B2806D040E0E8068E
:1018700001D40120A06001273AE0626901210198AA
:1018800090475E2805D14FF00109626949460198E9
:101890009047216939B900210A46534643F821206F
:1018A000491C0829FADBB0B3216969B9C11700EBFB
:1018B000D16253110AEB830122F01F02821A012028
:1018C0000B68904003430B606269012101989047C7
:1018D0005D28E8D1B9F1000F09D00020514651F838
:1018E0002020D24341F82020401C0828F7DB02AB1F
:1018F000224600976FF001000B99FFF74EF9002880
:101900000CDA401C08D1BBF1000F05D04FF0FF30BE
:101910000DB0BDE8F08FFFE74046F9E7E90701D1D8
:1019200008F1010806444FF0000B79E6CCCCCC0C52
:101930000029A8BF7047401C490008BF20F00100E3
:10194000704710B4B0FA80FC00FA0CF050EA0104C1
:1019500004BF10BC704749B1CCF1200421FA04F453
:1019600011FA0CF118BF012121430843A3EB0C012C
:10197000CB1D4FEA00614FEA102042BF002010BC8F
:10198000704700EBC35010440029A4BF10BC70473F
:10199000401C490008BF20F0010010BC704770B522
:1019A0008C1810F8015B15F0070301D110F8013B0A
:1019B0002A1106D110F8012B03E010F8016B01F891
:1019C000016B5B1EF9D12B0705D40023521E0DD4E9
:1019D00001F8013BFAE710F8013BCB1A921C03E037
:1019E00013F8015B01F8015B521EF9D5A142D8D36F
:1019F000002070BD094B10B5044600205A78022A19
:101A00000AD203F10C00246800EBC200521C0460EF
:101A100009684160D0B2587010BD0000C8000024B1
:101A2000704770477047704770477047704701F0C4
:101A300049BE0000F8B50446ADF80000BDF800004E
:101A40004FF6FF7101EA8010ADF800000D4E4FF423
:101A5000806500222946304601F029FEBDF80010BD
:101A6000094806F05BFF01222946304601F01FFEBF
:101A700006480CB1012200E00022802101F017FE8F
:101A80000020F8BD000C0258003800400010025839
:101A900038B5044614480078012822D1ADF800403A
:101AA000BDF800004FF6FF7101EA8010ADF80000AC
:101AB0000E4D00224021284601F0F9FDBDF800102E
:101AC0000B4806F02BFF01222846402101F0EFFDD4
:101AD00008484FF480710CB1012200E0002201F0AF
:101AE000E6FD002038BD0000200000240008025858
:101AF0000034014000100258FEE70000F0B5BFF3CB
:101B00004F8FBFF36F8F1D4900200860BFF34F8FC9
:101B1000BFF36F8F1A4C216841F400312160BFF38D
:101B20004F8FBFF36F8F164970310860BFF34F8F2F
:101B3000081F006843F6FF75104E1036C0F34E3193
:101B4000C0F3C90305EA4112184642EA80773760BC
:101B5000401EFAD2491EF5D2BFF34F8F206840F4E1
:101B600080302060BFF34F8FBFF36F8F03484C303E
:101B7000016841F004010160F0BD000050EF00E099
:101B800014ED00E02DE9F0411449012504460BF065
:101B90004DFA20B112A0214608F08CF81AE00F4C43
:101BA00016A0E388A288216808F084F8206801461E
:101BB00000F100600268D0F8020097B286B23A469F
:101BC00019A0334608F076F8A088B84203D1E0881F
:101BD000B04200D100252846BDE8F0813C32002407
:101BE0004669726D77617265202573206E6F74206F
:101BF000657869737465642E200D0A0046696E6409
:101C0000206669726D776172652C2073697A653D13
:101C100025642C20646174653D25642C2074696DF5
:101C2000653D25640D0A00005265616420666C61A3
:101C300073682073697A65203D2025642C206461D7
:101C400074653D25642C2074696D653D25640D0A1D
:101C50000000000070B50024FEF729FB064D28683F
:101C60000BF002FA00B9012428680AF035FFFEF7EC
:101C700020FB204670BD00007C020024084A0020A2
:101C80004FF4803102E0536B1B0602D4491EFAD296
:101C900000E011B1034991637047032070470000D1
:101CA00000700052FF0FE01F0E4A10B5516B11F08B
:101CB000450FFBD00C4B4C0704D504209063936375
:101CC000032010BDC90702D00120906310BD116927
:101CD000814201D0102010BD9363506900F00800CC
:101CE00010BD000000700052FF0FE01F10B50F4C38
:101CF00000204FF480320BE0616B11F0450F07D0EC
:101D00000AB14A0707D5A16B032041F004010AE09C
:101D1000521EF1D2F5E7C90704D0A16B012041F0B2
:101D20000101A1630249A16310BD000000700052CF
:101D3000FF0FE01F0849486B10F0450FFBD040072C
:101D400005D5886B40F00400886303207047034882
:101D5000886300207047000000700052FF0FE01FF2
:101D600030B5174B054600205A6B12F0450FFBD0DB
:101D7000540705D5986B40F004009863032030BDEC
:101D8000D20705D0986B40F001009863012030BD68
:101D90001A69AA420ED10B4A9A635A6912F4604F2B
:101DA00003D0910404D5132030BD120C0A8030BD3D
:101DB000510401D5102030BD1104FCD50F2030BDD9
:101DC00000700052FF0FE01F10B50E4C00204FF4C2
:101DD00080320BE0616B11F0450F07D00AB14A0762
:101DE00007D5A16B032041F0040108E0521EF1D297
:101DF000F5E7490604D5A16B002041F04001A1633D
:101E000010BD0000007000527047002310B503E0C1
:101E1000C45C4C40C4545B1C9342F9DB10BD000011
:101E20000149002008707047C800002410B504F074
:101E30000BFB0DF0F5F904F013FB06484FF40041DD
:101E4000006800F58B5001604021016001210160B4
:101E500010BD00005C35002470B5A2B00646002419
:101E6000694601258DF80450680306908DF80F50DF
:101E70004FF4C3608DF80E500D9020208DF81D405A
:101E80008DF80C4009948DF81F4012948DF8325053
:101E90008DF828408DF8605017904FF040508DF825
:101EA00038400F9402948DF861408DF81C401494D2
:101EB0008DF862400B948DF81E500090A8038DF8A9
:101EC00011508DF840408DF83140059002208DF87A
:101ED00012408DF85640169030468DF820508DF8FF
:101EE00054408DF830408DF810508DF80D408DF82D
:101EF000554011948DF84C5000F0CEF91B956905B2
:101F00008DF871404FF406708DF8685019948DF873
:101F100080408DF870401F918DF878401D9119A96F
:101F20008DF881402190304600F066F922B070BDF6
:101F30002DE9F047846A00F1180692468B68002765
:101F4000254656F82420D2F80CC0BCF1000F63DB04
:101F500091F800805FEA487837D5D1F824806FF394
:101F60000F0C4CEA080C4CF4803CC2F80CC0D0F8C2
:101F700000C0DCF8608048F48018CCF8608091F8EC
:101F800000C05FEA0C7C20D5B1F82CC0A2F80AC0D2
:101F9000D2F80CC04CF4003CC2F80CC0D1F8308030
:101FA0002CF4402C4CEA080CC2F80CC0D0F800C04D
:101FB000DCF8648048F48018CCF864800068D0F8BD
:101FC00050C04CF0806CC0F850C00878C0060BD5EB
:101FD0009068D1F818C06FF30D0040EA0C009060D3
:101FE000D06840F08060D060087810F0140F14D0F2
:101FF000D068641C042C40F04040D06000D3241F03
:10200000012756F82420D068002806DA56F8250063
:10201000C16821F00041C1608DE018687F1C10602C
:102020004FF000099068D3F804C06FF30D0040EA48
:102030000C009060D3F80880DFF8B8C1B8F1000F49
:102040000BD04346D8F80080C2F8048000EA0C00A8
:10205000B3F8048040EA084003E000EA0C00C2F84C
:10206000049090600878C006D0680FD5B1F8208041
:1020700020F4F00040EAC840D060D1F81C806FF333
:10208000110040EA080040F480201CE0D1F80480F0
:102090006FF30E0040EA0800D06091F800805FEA1C
:1020A000C87806D0D1F8148020F4403040EA080007
:1020B000D0600878800607D5D068D1F8108020F06D
:1020C000406040EA0800D0600878400707D5906873
:1020D000D1F8288020F4404040EA08009060D068A1
:1020E00020F0804040F02040D06091F800805FEA0E
:1020F000887869D5D1F80C8020F0607040EA08003B
:1021000061E0641C042C00D3241F56F82420D068FE
:10211000002813DA56F8251000200AE0CA686D1C62
:10212000042D22F00042CA6000D32D1F401C56F837
:102130002510B842F2D30220BDE8F08718687F1C52
:1021400010609068D3F804806FF30D0040EA080037
:102150009060D3F80880B8F1000F0BD04346D8F850
:102160000080C2F8048000EA0C00B3F8048040EA62
:10217000084003E000EA0C00C2F804909060087880
:10218000C006D06808D5D1F81C806FF3110040EA72
:10219000080040F4802011E0D1F804806FF30E00B5
:1021A00040EA0800D06091F800805FEAC87815D056
:1021B000D1F8148020F4403040EA0800D06020F0CC
:1021C000804040F00040D0609B68002B99D190681F
:1021D000BAF1000F04D040F0004003E0D068EEE711
:1021E00020F000409060D06840F08050D060002027
:1021F0003461A1E7FFFF00C030B5026802F58052EC
:10220000136847F60204A3430C68234313600A795A
:102210000B7B120342EAC3338A681343026802F558
:10222000805254684DF20105AC431C4354604B7B13
:102230000A6A42EA0343026802F58052D2F800417A
:10224000124D2C401C43C2F800410A7D4B7F120105
:1022500042EA03330A691343026802F58052D2F856
:1022600004410B4D2C401C43C2F8044100688A69AC
:10227000097F00F5805042EAC171D0F80821054B72
:102280001A400A43C0F8082130BD000000C0FEFF1C
:10229000EFEFC0FFFFFFC07F30B50B688A680C7B93
:1022A0001A430B79DB0643EAC4531A434B7B42EAD9
:1022B00083528B7B42EA4352CB7B42EA03530A7C34
:1022C000002A7CD0002243EAC2434A7C002A78D00C
:1022D000002243EA42428B7C42EA03424B691A43A2
:1022E0008B691A430B7F42EA03324B7F42EAC323D6
:1022F0008A7F002A66D0002243EA8222CB7F42EA0C
:10230000432391F82020002A7ED0002243EA0222B3
:102310004B6A1A4391F8283042EA0313CA6A1343FE
:1023200002681468434D2C401C43146091F83C2013
:1023300091F83830520642EA036291F8303042EAAE
:10234000834291F8313042EA434391F83220BAB3E4
:10235000002243EA02434A6B134302685468364D35
:102360002C401C43546091F840304A6C42EA0323ED
:102370000268D46840F20F15AC431C43D46091F856
:1023800054300A6D42EA430391F84C20EAB300222C
:10239000B1F84840D20142EA044213430268146F84
:1023A0004FF60D752C401C43146791F8553091F889
:1023B000562042EA43030268D2F8904003E02BE043
:1023C00032E02BE02CE024F003041C43C2F89040E0
:1023D0000268D2F8003D8C6D23F072032343C2F8EB
:1023E000003D91F86020CB6D12B30022006843EAF3
:1023F000821291F8613091F862101B0143EAC10129
:102400000A43D0F8301D01E00CE00FE021F07B0121
:102410001143C0F8301D30BD012254E7012258E7B6
:10242000012269E7012271E7012292E70122AFE769
:102430000122DBE7838004000080F8C070B500242F
:10244000924D0122214652288AB05ED015DC904E72
:1024500044287DD008DC31286ED041283DD0422868
:102460006CD0432823D161E04B2819D04C2830D0C0
:102470004E281DD05028F5D14EE063287BD008DCD3
:10248000532823D054284CD0582867D05928E9D154
:102490006AE06B2806D0722878D07328E2D10AE06F
:1024A000312200E030220B21412000F0D7F9E9E091
:1024B0000DF0DAF9E6E07748437D1BB1417580F80D
:1024C000BD19DFE0427580F8BD29DBE006F084FA33
:1024D00001E003F069FE0446D4E000F05FFA08A9C9
:1024E00006F0EEFD01280446E1D16B486B49007807
:1024F0000978084304D030780024012808D0C1E0CE
:1025000006F06AFA01280446D1D106F0C7FDB9E009
:1025100063A007F0CFFBB5E000F040FA06F056FEEE
:10252000D9E700F03BFA06F079FEABE062490878A3
:10253000401C0870A6E00BE07AE0FFE700F02EFAFE
:10254000EA884FF47A7301465C4803F027FAC2E741
:10255000307808B1317095E0327093E0FA20FFF7DF
:1025600069FAFA2004E006E00020FFF763FA002091
:10257000FFF78EFA86E0E888B8B1514841787229B1
:1025800005D0672908D062290BD00EE016E0801C28
:10259000FEF770F9A87008E0801CFEF76BF9E87090
:1025A00003E0801CFEF766F928710021287900906D
:1025B0000846EB78AA7806F09BFA8CE70691684605
:1025C000A96809F0BDFA00285CD13EA1684609F06F
:1025D0009FFA06004CD03F4806A9026807A80CF0F5
:1025E000D7F9002844D13648A9784030C38882887A
:1025F00039A007F05FFBDDE906104218304931F8D9
:10260000443F1380069A498810444180FDF74FFEED
:10261000DDE906100022091DB0473AA1684609F01D
:1026200077FA8047FDF745FE079809F053FD1FE054
:10263000364806906846A96809F082FA10BB34A1B2
:10264000684609F065FA050012D0FDF730FE334EFA
:10265000012206A93046A8470699024630A007F095
:1026600029FB31683BA0069107F024FBFDF721FE12
:10267000684609F04BFA0021024608469047684632
:1026800009F030FA0AB0204670BD0000B8000024FE
:10269000B40000247C1E002400000024010000245B
:1026A0004C4F473A20534420636172642065727234
:1026B0006F72210D0A0D0A00050000241C3400244D
:1026C000FC3100246578706F72745F666C617368AA
:1026D0000000000010000024577269746520666CC9
:1026E000617368207265636F7264203D2025642CDD
:1026F00020646174653D25642C2074696D653D25F9
:10270000640D0A007265626F6F74000078563412AF
:1027100077725F666C6173680000000000FC01085E
:10272000577269746520666C6173682061646472B5
:10273000203D20307830383031464330302C206412
:102740006174613D25642C20726573756C743D2540
:10275000640D0A005265616420666C6173682061D3
:10276000646472203D203078303830314643303058
:102770002C20646174613D25640D0A0070B5084D1C
:10278000002406460822314605EBC400FDF74DFF44
:1027900010F0FF0002D0641C022CF3DB70BD0000BF
:1027A000D4000024F0B500240E460822074601217B
:1027B0002546102005F0C6F91020FFF775FA00280D
:1027C0002ED13A040121372005F0BCF93720FFF75C
:1027D0006BFA002824D1012303220821401E05F0B2
:1027E000BDF900220121332005F0ACF93320FFF7B9
:1027F0005BFA002814D1174940F22A524B6B13425E
:1028000006D14B6B1B03F9D4D1F88040D1F880502E
:102810004A6B120705D5886B40F0080088630420D6
:10282000F0BD4A6B920705D5886B40F002008863C3
:102830000220F0BD4A6B920605D5886B40F020005F
:1028400088630620F0BD044A8A6321BA716029BA00
:102850003160F0BD00700052FF0FE01F2DE9F0471E
:102860002C4F81460026154688463878012805D128
:1028700013460A4628A0494607F01CFAB9F1450F4D
:1028800048461AD009DC41280FD042280FD04328EF
:102890000FD0B9F1440F2BD10DE046280FD04728B7
:1028A0000FD0B9F1500F23D10DE0234C0EE0234C93
:1028B0000CE0234C0AE0234C08E0234C06E0234CB8
:1028C00004E0234C02E0302D10D08CB1012101FA3C
:1028D00008F188B2302D804610D0012201462046F2
:1028E00000F0E5FE387801280AD00FE006F0D6FBAC
:1028F000014618A007F0DEF9012607E00022EDE707
:102900001DA02B464246494607F0D4F93046BDE8A3
:10291000F0870000B40000244C4F473A204750494C
:102920004F25632050696E202564207365742074E0
:102930006F2025640D0A00000000025800040258B0
:1029400000080258000C02580010025800140258E7
:10295000001802584552524F523A204572726F7217
:1029600020506F72742047726F7570204E616D65D4
:102970002025630D0A0000004C4F473A204750497C
:102980004F25632050696E20307825782073657458
:1029900020746F2025630D0A0000000003490A78A7
:1029A000824201D1481C704700207047FC3100244E
:1029B000034900204978C90700D001207047000072
:1029C0007C1E002410B528B190F83510022903D0E0
:1029D00080214165012010BD1D4A4FF495630168B7
:1029E0008C189C4207D8042280F83520086820F013
:1029F0000100086029E00C6824F00E040C600168F6
:102A00000A440A6822F001020A60016E0A6822F490
:102A100080720A6090F85C30012202FA03F10D4BDB
:102A20001960D0E919134B60C16E31B10B6823F402
:102A300080730B60D0E91C134B60002180F83410C8
:102A400080F83520016D01B18847002010BD0000DD
:102A5000F0FFFDBF0454025870B5026E00F12C0364
:102A6000456E53F8221025B1DC6B04B16D1C0024B7
:102A700023E0012070BD0E690E604FF08076CE60BD
:102A80004E692EB14E698E60CE6846F00076CE60FB
:102A9000CE6846F00046CE601E6C1EB1CE6846F091
:102AA0008046CE609E6B761EA64205D9521C0C2A2B
:102AB00000D30C3A53F82210641CAC42DBD30068FC
:102AC00000F58050C0F828110020986370BD10B543
:102AD00000EB8104E46A0AB10C2903D301214167A8
:102AE000084610BD22602261E06840F08070E0601E
:102AF0004BB1A36040F000706361E06040F00040C3
:102B0000E060002010BDE068F8E700297DD0026891
:102B1000126802F00C02CA6202681268C2F3001264
:102B200081F828200268126802F060024A62026896
:102B3000126842F30022521C81F8202002681268B9
:102B4000C2F34022CA770268126842F38022521C04
:102B50008A7702681268C2F3C0224A770268126854
:102B6000C2F300320A770268126802F400528A61E6
:102B70000268126802F480424A6102681268C2F375
:102B800000428A740268126842F34042521C4A743E
:102B90000268126842F3C042521C0A74026812684A
:102BA000C2F30052CA7302681268C2F340528A73B9
:102BB00002681268C2F380524A7302681268C2F354
:102BC000C0520A730268126802F0E0628A6002680A
:102BD0001268C2F3C0620A710268126802F0E04231
:102BE0000A6002685268C2F30D024A6302685268C2
:102BF00042F30042521C81F8322002685268C2F34C
:102C0000404281F83120026800E062E05268C2F37D
:102C1000804281F8302002685268C2F3006281F875
:102C2000382002685268C2F34462CA630268D268FC
:102C3000C2F3002281F840200268D26802F00F023D
:102C40004A640268126FC2F3400281F8542002689D
:102C5000126F42F3C012521C81F84C200268126FAE
:102C600002F070020A650268126F120C8A64026830
:102C7000D2F8902002F0010281F856200268D2F8C2
:102C80009020C2F3400281F855200268D2F8002D4E
:102C900002F072028A650268D2F8302D02F0230237
:102CA000CA650268D2F8302DC2F3C00281F86220F2
:102CB0000268D2F8302DC2F3001281F8612000685A
:102CC000D0F8300D40F38010401C81F860000020E7
:102CD0007047012070472DE9F043066E00F12C0883
:102CE0000746406E0C464FF0000958F8265018B9B8
:102CF000384600F063F9E8B3002017E0696939B39A
:102D0000C4B32969216079696160A46894B3696971
:102D1000216079696160E968761C0C2EC1F30E09A7
:102D200000D30C3EA468401C58F82650D8F8381040
:102D3000491E8142E2D8ECB1E868C0F30E01A1EB74
:102D400009007969814205D32969C4E900100EE0C0
:102D50002969DDE7696969B129692160796961607B
:102D6000A16839B16A690A607A69801A48600020EE
:102D7000BDE8F083FFE70120FAE770B500F12C040D
:102D80000D46D4E90D6111B900F018F968B1A06BD6
:102D9000761E30440C2800D30C3854F82000C0684C
:102DA000C0F30E002860002070BD012070BD00003F
:102DB000F8B5040003D094F8710010B104E00120CC
:102DC000F8BD204600F05EF9232084F871007148B8
:102DD000016841F002010160006800F0020000900B
:102DE000207A08B14FF4000002F0E6F9206800F5FF
:102DF0008050016841F00101016000F05DFCE026B7
:102E000005464FF4FA7706E000F056FC401BB84246
:102E100001D9042049E0206800F580500068C0070F
:102E2000F2D12068D0F8000220F4706501F07AFB3E
:102E300059495A4A0144914202D245F4007516E0BC
:102E40005749584A0144914202D245F440750EE078
:102E50005549564A0144914209D3554908445549B8
:102E6000884202D245F4807501E045F4806520680F
:102E7000C0F8005201F056FB4F49B0FBF1F0216859
:102E8000401EC1F8DC002046FEF7E6FF206800F592
:102E90008050D0F8001121F4E01141F40021C0F875
:102EA00000116169880704D00120606784F87160AF
:102EB00085E7206800F58050D0F8082147F6FE73BA
:102EC0009A4342EA4101C0F8081100210A46E0682D
:102ED00001EB410300EBC30004EB8103491C0260DA
:102EE000042942608260C2609861F0D3A26203212B
:102EF000206800F58050C0F82C112068E16800F5CA
:102F00008050C0F814112068E16800F58050C0F8C6
:102F100020110021206901EB410300EBC30004EB09
:102F20008103491C02600C2942608260C260026118
:102F30004261D862EED3E2650B2122666266E266E8
:102F4000A266206800F58050C0F830112068216921
:102F500000F58050C0F81C112168206901F58051EE
:102F600000F58470C1F82801606821688088C1F884
:102F7000000360680178D0F8010041EA0020216870
:102F8000C1F804036267102084F8710084F87200AD
:102F90000020F8BDF444025800D3CEFEC0E1E400A6
:102FA00040F1E9FD40787D0100796CFC005A620235
:102FB000001F0AFA80F0FA0240420F00F0B5C16D1E
:102FC0002C3000252C462B46866B50F8212036B33A
:102FD0000020F0BD6D1CD60019D5641C012C00D159
:102FE0000B46491C0C2900D30C3950F82120D2681B
:102FF000002A07DB520005D50122C263491C0C29B7
:1030000000D30C39303080E81A000120F0BD920066
:1030100013D501240B46491C11E050F82120D26839
:10302000002A01DB0C2DD5D34CB350F8232000210E
:103030004FF080764FF040771FE0491C641C0C294C
:10304000EBD30C39E9E715691560D66055690DB108
:103050009560D760D56845F00045D560D0F840C090
:10306000BCF1000F02D045F08045D5605B1C0C2BF5
:1030700000D30C3B491C50F82320A142E3D300218C
:103080008163A5E72C4800B587B0016841F00101D4
:103090000160016801F001010591016841F004013E
:1030A0000160016801F004010591016841F04001EF
:1030B0000160006800F0400005901F480838016872
:1030C00041F400410160016801F40041059101688B
:1030D00041F480310160016801F48031059101689B
:1030E00041F4003101600068002100F400300590D7
:1030F000862000900220CDE9010103900B2004906E
:1031000069460E4800F0D6F9322000900C48694616
:1031100000F0D0F94FF4605000900A48694600F082
:10312000C9F9002201213D2000F05AFB3D2000F0AA
:103130004AFB07B000BD0000E044025800000258FE
:1031400000080258000402582DE9F04104460068C6
:103150001F46D0F80032DB0718D1D0F8003223F038
:10316000787343EA415121F4F81141EA024141F0F8
:103170000D01C0F8001200F09FFA4FF47A76054670
:1031800007E000F099FA401BB04202D90120BDE8E7
:10319000F0812068D0F80002C007F2D12068D0F892
:1031A000040280B238600020F1E710B519B190F840
:1031B0007220102A01D0012010BDFFF76DF8002009
:1031C00010BD000070B505460068D0F8000220F47C
:1031D000706401F0A7F91149114A0144914202D2E9
:1031E00044F4007416E00F490F4A0144914202D2A0
:1031F00044F440740EE00D490D4A0144914209D354
:103200000C4908440C49884202D244F4807401E01D
:1032100044F480642868C0F8004270BD00D3CEFE3C
:10322000C0E1E40040F1E9FD40787D0100796CFCEB
:10323000005A6202001F0AFA80F0FA0210B590F8F4
:1032400071300021C26A102B01D0012010BD232350
:1032500080F871300023D468491C0C2944F0804464
:10326000D46000D30C395B1C00EB81020C2BD26ABA
:10327000F1D30121C16601680A6842F002020A60C6
:1032800001680A6842F001020A600168D1F8002D65
:1032900042F00102C1F8002D016801F58051D1F81A
:1032A000042142F00102C1F80421016801F58051B6
:1032B000D1F8082142F00102C1F80821016801F5A6
:1032C0008051D1F8602142F48172C1F8602110214F
:1032D00080F87110222180F87210006800F580508B
:1032E000D0F834114DF241021143C0F834110020DE
:1032F00010BD10B590F87110C26AE9B3232180F8AF
:103300007110016801F58051D1F8343148F241045F
:10331000A343C1F83431016801F58051D1F804317B
:1033200023F00103C1F80431016801F58051D1F89F
:10333000083123F00103C1F8083101680B6823F05C
:1033400001030B600168D1F8003D43F00103C1F8AF
:10335000003D01680B6823F002030B600021D36875
:10336000491C0C2923F08043D360F8D30021C166A7
:10337000102180F8711000E003E080F87210002046
:1033800010BD012010BD2DE9F0411546044621B1C4
:1033900094F87100102804D04FE0606F40F00100F5
:1033A00007E000222046FEF7C3FD20B1606F40F029
:1033B0000200606741E0A06A04EB8001401C042821
:1033C0008E69A06201D3001FA06204EB80008169B6
:1033D000206800F58050C0F8201100F06DF9074614
:1033E0004FF010081AE0206800F58050D0F8600116
:1033F000C0040BD5606F40F008006067206800F5DE
:103400008050D0F86001A067E02014E0681C05D06F
:1034100000F052F9C01BA84208D83DB1F06800285E
:10342000E1DB84F871800020BDE8F081606F40F03E
:1034300004006067404684F871000120F4E7000052
:1034400070B505460068D0F80042E4071FD1D0F8F7
:10345000000220F0787040EA4150114920F4F81041
:1034600040EA024020F00C00001D9AB2C1F804228C
:1034700040F00100C1F8000200F01EF94FF47A7626
:10348000044606E000F018F9001BB04201D9012003
:1034900070BD2868D0F80002C007F3D170BD0000ED
:1034A000008002400248016841F00101016070475C
:1034B000200400582DE9F84F6C4C00224FF0B04A20
:1034C0004FF0010B4FF0030E4FF00F090B680BFA92
:1034D00002F73B40BB4270D14D68022D01D0122D46
:1034E00012D1D50800EB850CDCF820605507ED0EF5
:1034F00009FA05F826EA0806D1F8108008FA05F856
:1035000048EA0608CCF82080D0F80080560091F8F0
:1035100004C00EFA06F50CF0030C28EA05080CFAB4
:1035200006FC4CEA080CC0F800C0D1F804C0BCF19D
:10353000010F08D0BCF1020F05D0BCF1110F02D071
:10354000BCF1120F16D1D0F808C0D1F80C802CEACB
:10355000050C08FA06F848EA0C08C0F80880D0F80C
:1035600004C02CEA070C0F79C7F30017974047EA0D
:103570000C074760C768AF438D68B5403D43C560E1
:103580004D68ED006BD53A4D2E6846F002062E6070
:103590002D6822F0030606F1B04605F002050095FD
:1035A000D6F808C495072F0F09FA07F52CEA050C81
:1035B000304DA84202D100252EE050E02E4DA84209
:1035C00001D1012528E02D4DA84201D1022523E09B
:1035D0002B4DA84201D103251EE02A4DA84201D15E
:1035E000042519E0284DA84201D1052514E0274DF6
:1035F000A84201D106250FE0254DA84201D107259B
:103600000AE0244DA84201D1082505E0224DA84238
:1036100001D1092500E00A25BD4045EA0C05C6F8A0
:10362000085425684E689D43F60300D51D43256068
:1036300065684E689D43B60300D51D436560DAF8A2
:10364000005056464F689D43FF0200D51D4335602C
:1036500075684F689D43BF0200D51D437560521CBD
:10366000102AFFF433AFBDE8F88F00008000005847
:10367000F44402580000025800040258000802589E
:10368000000C02580010025800140258001802588A
:10369000001C02580020025800240258006908400B
:1036A00000D00120704742694A40426170470AB128
:1036B000018370474183704701488068704700006C
:1036C0000C0100240248816802781144816070472F
:1036D0000C010024032010B500F0A2F80F2000F028
:1036E00007F808B1012010BD00F06CF8002010BDF3
:1036F00070B50D4D04464FF47A712878B1FBF0F0A7
:103700000A490968B1FBF0F001F06CFD48B9102CD2
:1037100007D200222146501E00F062F800206C60A3
:1037200070BD012070BD00000C01002418000024B1
:10373000134A41781160111D03780A1DE3B14368F3
:103740000B60017BC37A090741EA0361837A41EA8E
:10375000C341437B41EA8341837B41EA4341C37BCD
:1037600041EA0341437A41EA0321037A007841EABE
:1037700043010143116070470020086010607047EA
:1037800098ED00E0BFF35F8F0448016821F48031B9
:1037900001600249002070310860704724ED00E0AC
:1037A000074940F00100086005487038016841F49D
:1037B00080310160BFF34F8FBFF36F8F7047000000
:1037C00094ED00E07047002809DB012100F01F02A2
:1037D00091404009800000F1E020C0F800117047DE
:1037E0000E4BF0B41B68C3F30223C3F10704042C8F
:1037F00000D904241D1D072D01D2002300E0DB1E8B
:10380000012606FA04F56D1E0D409D409E40761E71
:10381000164045EA0601F0BC06F068BA0CED00E07F
:10382000064A00F0070110684FF6FF03184040EA0F
:103830000120034908431060704700000CED00E0D0
:103840000000FA0510B500F0B3FE084909684FF40E
:10385000807292FAA2F201F47061B2FA82F2D1405F
:10386000034A515CC8400349086010BD184402581F
:10387000D22D01081800002410B500F053FE0749AE
:103880000968102292FAA2F201F07001B2FA82F2F3
:10389000D140034A515CC84010BD0000204402588A
:1038A000D22D0108364930B50A68096812F00302C2
:1038B000344BC1F305311B68334C03F0100324680B
:1038C000DFED320AB7EE001AC4F3CC0414FB03F3A5
:1038D00000EE103A2E4BB8EE400A07D02D4C012ACC
:1038E00001D0022A4AD0B4FBF1F10BE0244C283C71
:1038F00022689506284A03D52468C4F3C104E2402F
:10390000B2FBF1F101EE901A1968B8EE612AC1F329
:10391000080101EE901A1968F8EE611A40EE201ABB
:1039200031EE810A22EE000AC1F34621491C00EE65
:10393000901AF8EE600A80EE201AFCEEC10AC0ED83
:10394000000A1968C1F30641491C00EE901AF8EE0E
:10395000600A80EE201AFCEEC10AC0ED010A196867
:10396000C1F30661491C00EE901AF8EE600A80EE81
:10397000201ABCEEC10A80ED020A30BD074ABFE73B
:10398000284402582C4402583C4402580000003994
:103990003844025800093D000090D00340787D0172
:1039A000364930B50A68096812F00302344BC1F396
:1039B00005511B68334C03F480732468DFED320A31
:1039C000B7EE001AC4F3CC0414FB03F300EE103A74
:1039D0002E4BB8EE400A07D02D4C012A01D0022A06
:1039E0004AD0B4FBF1F10BE0244C283C2268950648
:1039F000284A03D52468C4F3C104E240B2FBF1F1C4
:103A000001EE901A1968B8EE612AC1F3080101EEBF
:103A1000901A1968F8EE611A40EE201A31EE810A08
:103A200022EE000AC1F34621491C00EE901AF8EE7E
:103A3000600A80EE201AFCEEC10AC0ED000A196887
:103A4000C1F30641491C00EE901AF8EE600A80EEC0
:103A5000201AFCEEC10AC0ED010A1968C1F3066123
:103A6000491C00EE901AF8EE600A80EE201ABCEEB7
:103A7000C10A80ED020A30BD074ABFE72844025858
:103A80002C44025844440258000000394044025873
:103A900000093D000090D00340787D012DE9F84FEA
:103AA0000446006800252E46010104F12400FE4F63
:103AB000DFF8F88300901DD5606E50B1B0F5801F1F
:103AC0000CD0B0F5001F0ED0B0F5401F1DD0012561
:103AD0000FE0386840F40030386016E00221201D05
:103AE00003F07AFE03E00098022103F0EDFE0500EA
:103AF0000BD02E462088C00523D5606D05281ED228
:103B0000DFE800F00C11161B1B00D8F80010626EE5
:103B100021F440111143C8F80010EBE7386840F475
:103B20000030386009E00021201D03F055FE03E05D
:103B30000098002103F0C8FE05466DB100E00125A4
:103B40002E432088800528D5A06D80281ED00CDC4F
:103B500090B140280ED114E0D8F80010626D21F029
:103B600007011143C8F80010EBE7C02813D0B0F5E7
:103B7000807F10D001250FE0386840F400303860B5
:103B800009E00021201D03F027FE03E0009800213A
:103B900003F09AFE054685B12E432088DFF8109386
:103BA00040052CD5D4F8A400B0F5800F20D00DDC52
:103BB000A0B1B0F5001F0FD115E0D8F80010A26D2C
:103BC00021F4E0711143C8F80010E6E7B0F5C00F2A
:103BD00013D0B0F5000F10D001250FE0386840F485
:103BE0000030386009E00021201D03F0F5FD03E0FE
:103BF0000098002103F068FE054675B12E43208829
:103C000000052DD5D4F8A800B0F1007F21D00EDC3E
:103C1000A8B1B0F1807F10D116E0D9F80010D4F827
:103C2000A42021F460011143C9F80010E7E7B0F1C6
:103C3000407F13D0B0F1806F10D001250FE03868BD
:103C400040F40030386009E00021201D03F0C4FD7D
:103C500003E00098002103F037FE05466DB12E43C6
:103C6000206880011FD5A06CD8B110280FD0202863
:103C700012D0302815D0012514E0D9F80010D4F85E
:103C8000A82021F0E0611143C9F80010E8E7386886
:103C900040F40030386004E00221201D03F09CFD58
:103CA00005466DB12E432088C0042BD5E06DB0F5DC
:103CB000005F20D00DDCA0B1B0F5805F0FD115E022
:103CC0007A48001F0168A26C21F0300111430160A5
:103CD000E9E7B0F5405F13D0B0F5804F10D0012573
:103CE0000FE0386840F40030386009E00021201D02
:103CF00003F072FD03E00098002103F0E5FD0546A6
:103D000085B12E432088800429D5206EB0F5403F30
:103D100023D010DC08B3B0F5803F14D0B0F5003FDD
:103D20000FD115E0D8F80010E26D21F4E041114305
:103D3000C8F80010E6E7B0F5802F0ED0B0F5A02F40
:103D40000BD001250AE00121201D03F045FD03E011
:103D50000098012103F0B8FD05468DB12E4320885F
:103D600040042AD5D4F8AC00B0F1405F23D010DC79
:103D700008B3B0F1805F14D0B0F1005F0FD115E04F
:103D8000D8F80010226E21F4E0211143C8F8001089
:103D9000E5E7B0F1804F0ED0B0F1A04F0BD0012578
:103DA0000AE00121201D03F017FD03E00098012126
:103DB00003F08AFD05466DB12E43208800041FD50F
:103DC000E06ED8B1B0F1805F0ED0B0F1005F10D0DE
:103DD000012514E0D9F80010D4F8AC2021F0E0411E
:103DE0001143C9F80010E8E7386840F40030386043
:103DF00004E00121201D03F0EFFC05466DB12E43C8
:103E00002068C0011ED5606CD0B101280ED00228F8
:103E100011D0032814D0012513E0D8F80010E26E69
:103E200021F040511143C8F80010E9E7386840F428
:103E30000030386004E00221201D03F0CDFC05466F
:103E400075B12E432068DFF86CB040025AD51A488D
:103E5000016841F480710160FFF72EFC82460EE09C
:103E60001248001F0168626C21F0030111430160D8
:103E7000E8E7FFF721FCA0EB0A0064283AD80E48D7
:103E80000068C005F5D5B5BB094818300068B4F81E
:103E9000B01000F4407001F44071884219D0044819
:103EA000183001680AE000002C44025850440258BF
:103EB000584402581044025800480258026821F43D
:103EC000407142F480320260026822F48032026063
:103ED0000160D4F8B000B0F5807F22D1FFF7ECFB91
:103EE000824609E0FFF7E8FBA0EB0A0141F28830C7
:103EF000814201D9032504E0FE4800688007F1D51E
:103F00007DB12E432078DFF8F0A3C0073CD0A06F2E
:103F1000182837D025DC78B3082828D0102824D1D9
:103F20002BE0D4F8B000C0F3012103290ED0DBF858
:103F3000001021F47C51CBF80010EE480168B4F871
:103F4000B020C2F30B0211430160DBE7DBF8002075
:103F5000EA4B22F47C5203EA10100243CBF8002013
:103F6000EBE720280ED028280CD001250BE00121FA
:103F7000201D03F031FC04E004E00098012103F06F
:103F8000A3FC05465DB12E43207880071ED5606FE7
:103F9000062819D2DFE800F0160C11161616DAF80A
:103FA0000010A26F21F038011143CAF80010EBE7AE
:103FB0000121201D03F010FC03E00098012103F013
:103FC00083FC054675B100E001252E4320784007AB
:103FD0001FD5D4F89000062819D2DFE800F0160C9F
:103FE00011161616DAF80010626F21F0070111435E
:103FF000CAF80010EAE70121201D03F0EDFB03E001
:104000000098012103F060FC05469DB100E0012508
:104010002E43207880062BD5D4F88C00B0F1405F79
:1040200024D011DC10B3B0F1805F15D0B0F1005F87
:1040300010D116E0D9F80010D4F8902021F0070133
:104040001143C9F80010E4E7B0F1804F0ED0B0F191
:10405000A04F0BD001250AE00021201D03F0BCFB7E
:1040600003E00098022103F02FFC05468DB12E439A
:10407000207840062BD5D4F89800B0F5406F24D0B6
:1040800011DC10B3B0F5806F15D0B0F5006F10D112
:1040900016E0DAF80010D4F88C2021F0E04111434A
:1040A000CAF80010E4E7B0F5805F0ED0B0F5A05F6D
:1040B0000BD001250AE00021201D03F08DFB03E059
:1040C0000098022103F000FC05468DB12E432078B4
:1040D00000062BD5D4F89C00B0F5C04F24D011DCDD
:1040E00010B3B0F5005F15D0B0F5804F10D116E0D9
:1040F000D9F80010D4F8982021F4E0511143C9F800
:104100000010E4E7B0F5004F0ED0B0F5204F0BD013
:1041100001250AE00021201D03F05EFB03E000986A
:10412000022103F0D1FB054665B32E43207800073A
:104130000BD5D4F88000B0F5805F2DD0DAF80020E0
:1041400022F440520243CAF800202078C0060BD562
:10415000D4F89400B0F5807F24D0D9F8002022F460
:1041600040720243C9F80020206800032CD5D4F81F
:10417000A000E8B1B0F5803F1FD0B0F5003F21D0DE
:10418000012520E0D9F80010D4F89C2021F46041EA
:104190001143C9F80010C9E70098022103F094FB0D
:1041A0000643D2E70098022103F08EFB0643DBE7CB
:1041B0000021201D03F010FB03E00098022103F012
:1041C00083FB054685B12E432068400322D5D4F8F1
:1041D0008400B0F5801F11D0B0F5001F13D0B0F5EA
:1041E000401F15D0012514E0D9F80010D4F8A02004
:1041F00021F440311143C9F80010E5E7386840F474
:104200000030386004E00098012103F05DFB0546B2
:1042100055B12E432068C0031CD5E06C70B1B0F5D9
:10422000803F10D0012514E0DAF80010D4F8842083
:1042300021F440111143CAF80010EBE7386840F44C
:104240000030386004E00221201D03F0C5FA054665
:10425000C5B12E432068800004D50098022103F0E8
:1042600033FB0643206880031BD5E06FB8B1B0F57F
:10427000807F10D0B0F5007F11D0B0F5407F0ED018
:1042800001250DE01C4808380168E26C21F48031FA
:1042900011430160DEE7386840F40030386045B310
:1042A0002E432068C00207D5D8F80000226F20F006
:1042B00000401043C8F800002068C00008D5DBF8B3
:1042C0000010D4F8B42021F480411143CBF8001041
:1042D0002068800207D5D8F80010A26E21F0807106
:1042E0001143C8F800102068400014D5DBF8001016
:1042F00006E01EE07044025854440258CFFFFF000D
:1043000021F40041CBF80010DBF80010D4F8B820FD
:104310001143CBF800102068002806DA0A4801682B
:10432000226D21F04051114301605EB10120BDE8D2
:10433000F88FDAF80010E26F21F440711143CAF8E7
:104340000010AEE70020F2E74C4402582DE9F04798
:10435000DFF8BC9104460E46D9F8000000F00700D3
:10436000B0420CD2D9F8001021F007013143C9F84E
:104370000010D9F8000000F00700B0427ED120788C
:10438000DFF89081800707D5D8F80010E26821F0A7
:104390000F011143C8F800102078C00762D0D8F888
:1043A0000010A26821F470611143C8F80010594947
:1043B0006068183902281CD003281DD0096801281C
:1043C0001DD04907002960DA524F083F396821F0B3
:1043D000070101433960FFF76FF90546606841F254
:1043E0008831022813D003281ED001288A4627D0FE
:1043F00034E009688903E5E709688901E2E7C9054E
:10440000E0E7FFF759F9411B514501D923E08A46FE
:104410003868C0F3C2000228F3D123E0FFF74CF95B
:10442000411B514501D916E08A463868C0F3C200E5
:104430000328F3D116E0FFF73FF9411B51450AD895
:104440003868C0F3C2000128F5D10BE0FFF734F95A
:10445000411B514502D90320BDE8F087386810F0B0
:10446000380FF3D1D9F80010484601F00701B142E6
:104470000DD9016821F00701314300E005E001603A
:10448000006800F00700B04201D00120E4E7207886
:10449000400707D5D8F80010226921F070011143B8
:1044A000C8F80010207801071B4805D5016862692B
:1044B00021F07001114301602178C90605D501681A
:1044C000A26921F4E061114301602078800607D5DC
:1044D0001149091D0868E26920F070001043086066
:1044E00000F066F8D8F800104FF4807292FAA2F249
:1044F00001F47061B2FA82F2D140084A515CC840BE
:10450000074908600F20FFF7F3F80020A4E7000038
:1045100000200052184402581C440258D22D0108B1
:104520001800002410B5FFF78DF908490968012229
:1045300092FAA2F201F00F01B2FA82F2D140044ADB
:10454000515CC8400349086010BD0000184402587F
:10455000D22D01081C00002410B5FFF7E3FF074926
:104560000968102292FAA2F201F07001B2FA82F206
:10457000D140034A515CC84010BD00001C440258A1
:10458000D22D010810B5FFF7CDFF074909684FF498
:10459000807292FAA2F201F4E061B2FA82F2D140A2
:1045A000024A515CC84010BD1C440258D22D01087B
:1045B0003548F0B50068364D10F03801334809D061
:1045C0000411082904D0334E10290BD018290BD020
:1045D0002046F0BD29688906FBD52968C1F3C101D1
:1045E000C840F0BD3046F0BD274918310A68096857
:1045F00012F00302284BC1F305111B68274F03F08B
:1046000001033F68DFED260AB7EE001AC7F3CC07B7
:1046100017FB03F300EE103A224BB8EE400A06D027
:10462000012A01D0022A2BD0B4FBF1F008E02A685D
:10463000920603D52A68C2F3C102D040B0FBF1F064
:1046400001EE900A1868B8EE612AC0F3080001EE86
:10465000900A1868F8EE611A40EE201A31EE810ACD
:1046600022EE000AC0F34620401C00EE900AF8EE4D
:10467000600A80EE201ABCEEC10A10EE100AF0BDEE
:10468000B6FBF1F0DCE70000104402580090D003C4
:104690000044025840787D012C44025834440258AA
:1046A00000000039304402582DE9F05F04460078DC
:1046B000DFF8FC8341F28839DFF8F8A3FE4DC0072C
:1046C0004ED0D8F800104046C1F3C20102291AD0DA
:1046D0000068C0F3C200032805D1DAF8000000F03A
:1046E000030002280FD06068B0F5803F12D010B1EF
:1046F000B0F5A02F19D0286820F4803028602868F1
:1047000020F4802009E02868800329D5606800280B
:1047100074D025E0286840F480302860606890B14B
:10472000FEF7CAFF06464F4609E0286840F480209D
:104730002860EFE7FEF7C0FF801BB8427DD82868ED
:104740008003F7D50CE0FEF7B7FF06464F4604E0BE
:10475000FEF7B2FF801BB842F0D828688003F7D478
:104760002078D64F80075AD5D8F8001040464FF42D
:104770007C3B11F0380F13D00068C0F3C20003284F
:1047800003D1DAF8000080070AD0E068A8B32968EE
:1047900021F0190101432960FEF78EFF06461DE056
:1047A0002868400702D5E0680028B1D02868E16891
:1047B00020F0190008432860FEF77EFF064604E05B
:1047C000FEF77AFF801B0228B8D828684007F7D583
:1047D00007E0FEF771FF801B0228AFD8286840076A
:1047E000F7D538689BFAABF220F47C312069B2FA35
:1047F00082F290400143396011E000E0AEE02868A9
:1048000020F001002860FEF757FF064604E0FEF79F
:1048100053FF801B022891D828684007F7D42078DE
:10482000C00655D5D8F8001040464FF0F84BC1F3FC
:10483000C201012917D0006800E0EDE0C0F3C2001A
:10484000032805D1DAF8000000F0030001280AD09F
:10485000E069002828682CD040F080002860FEF72E
:104860002BFF064616E02868C00502D5E0698028BF
:1048700074D138689BFAABF220F0F841206AB2FAA2
:1048800082F290400143396022E0FEF715FF801B61
:10489000022899D82868C005F7D538689BFAABF28A
:1048A000216AB2FA82F220F0F84091400843386061
:1048B0000EE020F080002860FEF7FEFE064604E0D1
:1048C000FEF7FAFE801B022887D82868C005F7D4B7
:1048D0002078000724D5774F60694C370028386866
:1048E0000FD040F001003860FEF7E6FE064604E017
:1048F000FEF7E2FE801B02288DD838688007F7D5C6
:104900000EE020F001003860FEF7D6FE064604E017
:10491000FEF7D2FE801B02287ED838688007F7D4C5
:104920002078800623D5A069002828680FD040F49D
:1049300080502860FEF7C0FE064604E0FEF7BCFE8D
:10494000801B022868D828688004F7D50FE020F47F
:1049500080502860FEF7B0FE064605E0D6E0FEF780
:10496000ABFE801B022857D828688004F7D4207833
:10497000400744D5524F386840F480703860FEF7E5
:104980009BFE064604E0FEF797FE801B642843D892
:104990003868C005F7D5474FA068483701280AD0C6
:1049A00008B1052811D0386820F001003860386857
:1049B00020F0040002E0386840F001003860A06890
:1049C00088B1FEF779FE064609E0386840F0040039
:1049D0003860F0E7FEF770FE811B49451CD8386847
:1049E0008007F7D50BE0FEF767FE064604E0FEF70A
:1049F00063FE811B49450FD838688007F7D4606A89
:104A0000F0B3D8F80010C1F3C20103297ED0022808
:104A1000286820F0807000E079E0286003D0FEF77D
:104A20004BFE044687E0FEF747FE064604E0FEF72D
:104A300043FE801B02287BD828688001F7D4DAF86F
:104A4000001040F2F3329143E26A41EA0211A26A95
:104A50001143CAF8001094F834004FF4FE02218E7E
:104A60004002491EA0F5007080B2C1F3080108435E
:104A7000218F491E02EA0141084394F83C1000E0EE
:104A80005CE0491E120202EA01610843094908314B
:104A900008600B1D19684FF6F872A06C914392FAEA
:104AA000A2F2B2FA82F2904001431960014809E093
:104AB0001044025828440258004402580444025842
:104AC00000480258001D0168226C21F00C011143BE
:104AD00001600168626C21F002011143016001680C
:104AE00041F480310160016841F4003101600168E6
:104AF00041F480210160016841F0010101602868F2
:104B000040F080702860FEF7D7FD01E018E00FE06C
:104B1000044604E0FEF7D0FD001B022808D82868F0
:104B20008001F7D50AE0FEF7C7FD001B022802D975
:104B30000320BDE8F09F28688001F4D40020F8E746
:104B40000120F6E72DE9F05F04004FF000053DD0AD
:104B5000DFF8C4812068714E714F4045A36A06D0CA
:104B6000B04204D0B84202D0E1680F292ED8E26BDF
:104B70004FF0010B0BEB521CE26802F10801C9086F
:104B8000404501FB0CF105D0B04203D0B84201D042
:104B900008291BD8404503D0B04201D0B84201D10A
:104BA000102913D84FF480094B4512D1404507D046
:104BB000B04205D0B84203D0206BB0F5702F05D8B5
:104BC000256B05B91504B2EB154F02D90120BDE8DC
:104BD000F09F94F881004FF0000A20B9204684F835
:104BE00080A000F09FF8022084F88100206801680E
:104BF00021F001010160A069B0F1806F09D1606806
:104C0000484506D1A06B20B92068016841F4805165
:104C10000160A16AE0690843E16B29430843E16848
:104C2000084321688860616A606BA2690843A16BD0
:104C3000114308432169084361690843216A084315
:104C400061680843E16C0843A1680843A16C08430C
:104C5000A16D08432168C860A06A484529D1206C2D
:104C600001282068016827D021F400410160606CB0
:104C700001282068016822D021F480410160206869
:104C8000404506D0B04204D0B84202D0B5F5702FEE
:104C900018D0404503D0B04201D0B84202D1B5F59A
:104CA000F81F0FD0016821F4005101602168E06A0B
:104CB0000864606850B119E041F40041D6E741F45E
:104CC0008041DBE7016841F40051EEE7A06A30B9AA
:104CD0002068816821F4C05141F40061816020683E
:104CE000816821F4C06141F4806181602068016DB8
:104CF00021F0010101656068400206D52068C168A5
:104D0000626D21F000411143C160C4F884A084F8B1
:104D100081B000205BE70000003001400038004017
:104D2000003C0040F0B587B0044614216846FBF70C
:104D300011FC534A02255148032621680024DFF85C
:104D400040C1103A052781422AD1DCF8000040F426
:104D50008050CCF80000DCF8000000F48050059092
:104D6000106840F001001060106800F0010005902C
:104D7000106840F008001060106802AB694600F04F
:104D8000080005902020CDE9000583E8D0003D48CB
:104D9000FEF790FB80206946CDE900053A4868E0BF
:104DA000374BDFF8E8E03A48083B71451CD11968F9
:104DB00041F480411960196801F48041059111683E
:104DC00041F00201116011680DF1080C01F00201BF
:104DD00005914FF40441CDE900158CE8D0006946F7
:104DE000FEF768FB07B0F0BDDFF8A8E0714524D1FD
:104DF000196841F400411960196801F400410591F6
:104E0000116841F00201116011680746029401F037
:104E1000020105910421CDE900150721CDE90361C7
:104E20006946FEF747FB08200294CDE900050620FD
:104E30006946CDE903603846D2E717488142D1D1AF
:104E4000DCF8000040F40050CCF80000DCF8000072
:104E500000F400500590106840F0100010601068D9
:104E6000694600F0100005904FF48250CDE900052E
:104E70000A4802AB83E8D000B2E7000000300140EE
:104E8000F044025800000258000C0258003800405C
:104E900000040258003C0040003401400010025859
:104EA0002DE9F84F044690F880001F4692460A9D6F
:104EB00001288B4613D04FF0010984F88090FEF74B
:104EC000FBFB94F8812006460020012A4FF4800164
:104ED0000ED062688A4209D1A2683AB902E0022083
:104EE000BDE8F88F94F88120042A01D0022136E031
:104EF000BBF1000F32D0BAF1000F2FD077B394F886
:104F00008120042A02D0052284F881208046C4F83A
:104F10008400C4F864A0A4F86A70A4F86870C4F8A7
:104F20005CB0A4F86270A4F86070206760672068C5
:104F300042686FF30F023A4342602068026842F011
:104F4000010202606068884204D12068016841F46F
:104F500000710160E0680F2840D848E0012184F822
:104F600080000846BCE7B4F8620070B1206841696F
:104F700089070AD5E16D09680162E06D001DE065F1
:104F8000B4F86200401EA4F86200B4F86A0080B170
:104F90002068416948F2080211420AD0006B616E34
:104FA0000860606E001D6066B4F86A00401EA4F8D8
:104FB0006A00681C12D0FEF77FFB801BA8420DD34D
:104FC000204603F0FFFB84F88080D4F8840040F48E
:104FD0008070C4F8840084F88190EBE0B4F862003B
:104FE0000028C0D1B4F86A000028BCD1C8E0072866
:104FF00049D8BDE0B4F86200F0B120684169890782
:105000001AD5B4F8621001290BD9E16B49B1E16DF1
:1050100009680162E06D001DE065B4F86200801E61
:1050200008E0E16D09880184E06D801CE065B4F85A
:105030006200401EA4F86200B4F86A00E0B1206883
:10504000416911F4604F17D04169090409D5006B1B
:10505000616E0860606E001D6066B4F86A00801EB4
:1050600008E0008E616E0880606E801C6066B4F897
:105070006A00401EA4F86A00681C04D0FEF71CFBFE
:10508000801BA8429CD2B4F862000028B2D1B4F8C8
:105090006A000028AED173E0B4F8620080B32068E3
:1050A000416989072CD5B4F8621003290CD9E16B4A
:1050B000402909D9E16D09680162E06D001DE065D4
:1050C000B4F86200001F19E0B4F8621001290BD98E
:1050D000E16B49B1E16D09880184E06D801CE065F8
:1050E000B4F86200801E09E0E16D097880F82010B4
:1050F000E06D401CE065B4F86200401EA4F8620058
:10510000B4F86A0068B32068416911F4604F28D090
:105110004169090409D5006B616E0860606E001D6D
:105120006066B4F86A00001F19E0416901F4C041EB
:10513000B1F5005F09D9008E616E0880606E801C39
:105140006066B4F86A00801E09E090F83000616E75
:105150000870606E401C6066B4F86A00401EA4F8D7
:105160006A00681C04D0FEF7A7FA801BA84289D207
:10517000B4F8620000288FD1B4F86A0000288BD1FF
:105180000022334608212046009503F0A7FB28B1F2
:10519000D4F8840040F02000C4F88400204603F0D6
:1051A00011FB84F8808084F88190D4F88400002872
:1051B0003FF4D8AE012093E603490A6822F4600266
:1051C00002430A6070470000040400584FF0E021D9
:1051D0000428086903D020F004000861704740F0FB
:1051E0000400FAE7401EB0F1807F10B501D3012022
:1051F00010BD4FF0E02460610F21601704F076FDD0
:105200000020A06107202061002010BD704770477A
:1052100010B5040003D094F83D0010B107E0012060
:1052200010BD002084F83C00204600F00DF802205C
:1052300084F83D002068211D03F0D0FE012084F891
:105240003D00002010BD0000194808B5016841F07C
:1052500002010160016801F002010091016841F062
:1052600010010160016801F010010091016841F036
:105270000101016000680022012100F0010000909E
:105280001D20FEF7ADFA1D20FEF79DFA0322002136
:105290003620FEF7A5FA3620FEF795FA0322022102
:1052A0001C20FEF79DFABDE808401C20FEF78BBAD3
:1052B000E84402580168CA6842F00102CA60006806
:1052C000018841F00101018000207047704770B5EE
:1052D0000446006801694FF00005C943890715D4E9
:1052E000C168C943890711D4E91E016101202077F3
:1052F000206880698007204602D0FFF7E7FF04E0BE
:1053000000F0A5F8204600F0A3F825772068016991
:10531000C943490717D4C168C943490713D46FF07B
:1053200004010161022020772068806910F4407F29
:10533000204602D0FFF7CAFF04E000F088F82046BC
:1053400000F086F8257720680169C943090716D45B
:10535000C168C943090712D46FF008010161042034
:1053600020772068C0698007204602D0FFF7AEFF93
:1053700004E000F06CF8204600F06AF82577206819
:105380000169C943C90617D4C168C943C90613D402
:105390006FF010010161082020772068C06910F4C7
:1053A000407F204602D0FFF791FF04E000F04FF865
:1053B000204600F04DF8257720680169C943C907E8
:1053C00008D1C168C943C90704D1891E01612046BB
:1053D00000F040F8206801696FF08005C9430906B4
:1053E00007D4C168C943090603D405612046FFF705
:1053F0000DFF20680169C943C90507D4C168C943C5
:10540000090603D405612046FFF700FF2068016903
:10541000C943490609D4C168C943490605D46FF098
:1054200040010161204600F033F820680169C9435A
:1054300089060BD4C168C943890607D46FF02001DF
:1054400001612046BDE87040FFF7E1BE70BD7047C6
:10545000704700000D4910B5884203D1BDE81040E7
:1054600000F04CBB09494031884203D1BDE81040EF
:1054700000F0ACBB05498031884206D103F040FD05
:10548000BDE810407220FCF7D9BF10BD9C34002449
:1054900070477047704790F8791090F87A00084389
:1054A0007047000070B502680446D06913689168BF
:1054B00010F00F0F64D0594D03F490760D40354332
:1054C00076D0C50707D0DD0505D501251562E26F49
:1054D00042F00102E267820708D5CA0706D02568B4
:1054E00002222A62E26F42F00402E267420708D514
:1054F000CA0706D0256804222A62E26F42F002023F
:10550000E26702070ED503F0200201F080552A431E
:1055100052EAC17206D0256808222A62E26F42F080
:105520000802E267E26F002A3AD0800608D503F04D
:10553000200001F08051084302D0204604F000F81A
:10554000E06F000703D42068806840062AD5204613
:1055500003F0E8FF2068816849061ED5816821F0C4
:1055600040018160606FC0B12D490165606FFDF73A
:1055700029FA002814D0606F016DBDE8704008471B
:10558000850615D503F0200501F0805635430FD070
:105590002046BDE8704003F0D3BF2046FFF77AFFF6
:1055A00070BD05E02046FFF775FF0020E067F7E7D4
:1055B000C6024FF020050CD54E020AD5E803106252
:1055C00084F8795084F87A502046BDE87040FFF79F
:1055D00060BF06060AD503F0800601F400010E4301
:1055E00004D02046BDE8704004F03ABA41060BD51D
:1055F000590609D51168204621F04001116084F850
:10560000795000F024FACBE70002C9D55800C7D57D
:10561000106820F080401060C2E700000100001018
:105620001195000810B5040003D094F8790010B16A
:1056300007E0012010BD002084F87800204600F02B
:1056400027F8242084F879002068016821F00101FE
:105650000160204603F0B0FF0128EBD0606B10B171
:10566000204603F0C3FE2068416821F49041416068
:105670002068816821F02A0181602068016841F07A
:10568000010101602046BDE8104003F013BF000097
:1056900010B5324C022201680123314886B0A14284
:1056A00032D1016841F001010160016801F001019E
:1056B0000591016841F002010160006800F00200FC
:1056C000059027481030016841F010010160006822
:1056D000694600F01000059050038DE80D0004208D
:1056E000CDE903201F48FDF7E5FE072004902015B3
:1056F00000901D486946FDF7DDFE2520FEF763F8A2
:1057000003222520114624E0184CA14223D114493C
:1057100008310C6844F400240C60096801F400218D
:105720000591016841F0080101600068694600F0D8
:105730000800059003208DE80D000820CDE9032026
:105740000B48FDF7B7FE3420FEF73DF80322342066
:105750001146FEF745F806B010BD000000100140EC
:10576000E04402580004025800000258004C004077
:10577000000C02582DE9F84F044690F87A0098463C
:1057800016460D46202867D1FDB1F6B194F8780091
:10579000012861D0012084F878004FF00009C4F896
:1057A0007C90222084F87A005C34FDF785FFA68186
:1057B0008246E681FF2154F8540C5C3C4FF480573C
:1057C000B84208D1206918B10DE00120BDE8F88F7A
:1057D00040F2FF100DE07F2218B1B0F1805F05D0DC
:1057E00009E0206950B9A4F86C1004E0206928B1E0
:1057F0003F20A4F86C00B4F86C601CE0A4F86C20A6
:10580000F9E7B4F86A00401EA4F86A000022534683
:1058100020212046CDF8008004F05CF908B1032077
:10582000D4E7A068B84201D1206978B12068808CA3
:10583000304005F8010BB4F86A000028E1D12020BF
:1058400084F87A00002084F87890BFE72068808C84
:10585000304025F8020BEEE70220B7E790F87A30E7
:10586000202B4CD1B9B1B2B190F87830012B46D091
:10587000012380F878304166A0F86820A0F86A20FB
:10588000FF228168B1F5805F07D07F2351B1B1F16C
:10589000805F0CD010E001207047016921B940F20F
:1058A000FF1107E0016909BBA0F86C2004E0016961
:1058B000E1B13F21A0F86C100021C167222280F8DD
:1058C0007A2080F8781001688A6842F001028A60C4
:1058D00001680A6892000CD50A6842F480720A6076
:1058E0000068816841F08051816006E0A0F86C306A
:1058F000E2E7086840F490700860002070470220DA
:105900007047000070B500681E4988422DD11E48BE
:10591000012101F049FE1C4CA41E207010B1FCF7BF
:105920008DFD6070A088010409D417494504174B08
:105930004FF00002097809D50A2901D0A28070BD74
:10594000C0F30D0140F400405A540CE00D2908D07A
:10595000C0F30D05401C80B25955C728A080EDD872
:1059600070BD40F48040A08070BD09498842FBD1E1
:1059700005480949001D074B027808781A54401C55
:10598000087070BD00100140FE000024D4320024D5
:10599000004C004054320024C40000242DE9F84398
:1059A000044690F879001E4617460D4620284CD133
:1059B000C5B1BFB194F87800012846D0012084F821
:1059C00078004FF00008C4F87C80212084F879002A
:1059D0006034FDF771FE278081466780603C4FF49C
:1059E000805718E00120BDE8F883B4F86200401E3B
:1059F000A4F8620000224B4680212046009604F065
:105A000069F8A0B9A068B84201D1206988B115F839
:105A1000010B21680885B4F862000028E5D1002256
:105A20004B4640212046009604F054F830B1032044
:105A3000D9E735F8020BC0F30800EAE7202084F824
:105A40007900002084F87880CDE70220CBE770470A
:105A500009F00AFFFEE700000148007870470000E7
:105A6000C8000024FA2010B5FBF7E4FF0E4CE06AF2
:105A7000807850B103F0A6F9206B0C49C078897D7D
:105A800088420DD003F010F90AE0206B8178491E9E
:105A900011F0FF01817003D101800846FBF7CAFFB6
:105AA000206B008810BD0000200000247C1E002414
:105AB000FA2010B5FBF7ECFF0E4C606B807858B104
:105AC00003F098F9A06B0C49C07891F8BE19884290
:105AD0000DD003F0FBF80AE0A06B8178491E11F0AD
