:020000040800F2
:1000000008CE0624BD020008E58D0008A976000888
:10001000C9020008751C0008DDCD000800000000C2
:1000200000000000000000000000000025BA0008E9
:10003000252000080000000057030008F9C100084F
:10004000D7020008D7020008D7020008D70200082C
:10005000D7020008D7020008D7020008D70200081C
:10006000D7020008D7020008D7020008D70200080C
:10007000D7020008D7020008D7020008D7020008FC
:10008000D7020008D7020008D7020008D7020008EC
:10009000D7020008D7020008D7020008D7020008DC
:1000A000D7020008D7020008D7020008D7020008CC
:1000B000A1C20008F9C20008D7020008D702000850
:1000C000D7020008D7020008D7020008D7020008AC
:1000D000D70200088DCD0008D7020008D70200081B
:1000E000D7020008D702000800000000D70200086D
:1000F000D7020008D7020008D7020008D70200087C
:10010000D7020008D7020008D7020008D70200086B
:1001100005C60008D702000855C30008D70200082A
:10012000D7020008D7020008D7020008D70200084B
:10013000D70200085D250008D7020008D702000892
:1001400000000000000000000000000000000000AF
:10015000D7020008D7020008D7020008D70200081B
:10016000D7020008D7020008D7020008D70200080B
:10017000D7020008D7020008D7020008D7020008FB
:10018000D7020008D7020008D7020008D7020008EB
:10019000D7020008D7020008D7020008D7020008DB
:1001A000D7020008D7020008D7020008D7020008CB
:1001B000D7020008D7020008D7020008D7020008BB
:1001C000D7020008D7020008D7020008D7020008AB
:1001D000D7020008D7020008D7020008D70200089B
:1001E000D7020008D7020008D7020008D70200088B
:1001F000D7020008D7020008D7020008D70200087B
:10020000D7020008D7020008D7020008D70200086A
:10021000D7020008D7020008D7020008D70200085A
:10022000D7020008D7020008D7020008000000002B
:10023000D7020008D702000800000000D70200081B
:10024000D7020008D7020008D7020008D70200082A
:10025000D7020008D7020008D7020008D70200081A
:10026000D7020008D7020008D7020008D70200080A
:10027000D7020008D7020008D702000800000000DB
:10028000D702000800000000D702000800000000AC
:1002900000000000D7020008DFF80CD001F066F87B
:1002A00000480047F130010808CE062430BF72B67E
:1002B000704762B6704780F30888704706488047E9
:1002C00006480047FEE7FEE7FEE7FEE7FEE7FEE73B
:1002D000FEE7FEE7FEE7FEE71DC200089902000800
:1002E000EFF3098141B1F1EE101A40F8041D20ED41
:1002F000200A29490A6810607047B0EC200A02C839
:10030000E1EE101A25490A6810607047EFF310807B
:1003100072B6704780F31088704721484FF0FF0194
:100320000170002080F309881E48016881F3088865
:100330001D48012101701D484FF08051016062B6D7
:10034000FEE71A484FF080510160704717484FF0A0
:1003500080510160704772B6EFF3098028B12038F0
:1003600080E8F00F0C490968086000B51048804724
:100370005DF804EB0F4810490A78027006480749F7
:100380000A680260106890E8F00F203080F3098856
:100390004EF0F40E62B670471002002418020024DA
:1003A00022ED00E034020024F701002404ED00E017
:1003B000199A0008F4010024F5010024094910B538
:1003C00008784C1C18B1401E0870205C10BD00213C
:1003D0000720ABBE207010BD02490878421C0A708D
:1003E00070470000E40300244FF0FF307047002006
:1003F00070474FF0FF307047002070470020704773
:100400004FF0FF3070474FF0FF3070474FF0FF3034
:1004100070474FF0FF3070474FF0FF3070472DE9C5
:10042000F05F0546002092469B4688460646814678
:1004300040241BE0284641464746224600F01AFA6F
:1004400053465A46C01A914110D3114618462246C7
:1004500000F001FA2D1A67EB01084F4622460120F1
:10046000002100F0F8F917EB00094E41201EA4F11D
:100470000104DFDC484631462A464346BDE8F09F8A
:1004800000487047AC77010810B50446FFF7F8FF45
:100490000068005D00F0010010BD4FF0FF307047B4
:1004A00010B5441A0346944209D28418114403E05B
:1004B00011F8013D04F8013D521EF9D210BD40EA89
:1004C0000104A40703D009E010C9121F10C3042AB5
:1004D000FAD203E011F8014B03F8014B521EF9D296
:1004E00010BDD2B201E000F8012B491EFBD27047CB
:1004F0000022F6E710B513460A4604461946FFF7F0
:10050000F0FF204610BD421E12F8013F002BFBD128
:1005100011F8013B02F8013B002BF9D1704730B5CF
:1005200005462A460B4612F8010B13F8014B08B199
:10053000A042F8D01CB1002802D06D1CF1E728467B
:1005400030BD10B5044604E00B7800F8013B03B160
:10055000491C521EF8D2204610BD10B5034600209B
:10056000904201D20C5C1C540C5C002C01D0401C4D
:10057000F6E710BDCAB2401E10F8011F8A4202D031
:100580000029F9D100207047421C10F8011B0029F6
:10059000FBD1801A704710B5002200E0521C835C2A
:1005A0008C5CA34201D1002BF8D1D8B2E1B2401A41
:1005B00010BDCBB203E00178994203D0401C521E1B
:1005C000F9D20020704730B504460020034600E011
:1005D0005B1C934203D2E05CCD5C401BF8D030BD85
:1005E00010B5044600E0401C0378002BFBD100E06E
:1005F000401C521E04D311F8013B0370002BF7D1AD
:1006000000210170204610BDFFF7C5BF034611F859
:10061000012B00F8012B002AF9D11846704730B59C
:1006200005460020034600E05B1C934205D2EC5CCB
:10063000C85C201A01D1002CF6D130BD70B50F4D29
:1006400000B92868002412E00A4602E09E4203D066
:10065000521C1378002BF9D1DAB2224305D02BB10A
:1006600024B1002100F8011B04E00446401C067878
:10067000002EE9D12860204670BD0000F003002460
:100680000246C9B200E0401C0378002BFBD102E017
:1006900003788B4203D0401E9042F9D2002070476D
:1006A00030B503461D783DB10A4612F8014B1CB126
:1006B000AC42FAD15B1CF5E7181A30BD30B50546DF
:1006C000002008E00A4602E0A34207D0521C13783B
:1006D000002BF9D1401C2C5C002CF3D130BD10B59F
:1006E00008E00A4602E0A34208D0521C1378002B0F
:1006F000F9D1401C0478002CF3D1002010BD00007B
:1007000007280FD2DFE800F00406080E0E0C0A00DE
:1007100005A070470AA0704713A070471DA070473E
:1007200022A070472BA070474E6F206572726F72C7
:1007300020286572726E6F203D2030290000000075
:1007400045444F4D202D2066756E6374696F6E2091
:10075000617267756D656E74206F7574206F6620A9
:1007600072616E67650000004552414E4745202D7D
:100770002066756E6374696F6E20726573756C7434
:10078000206E6F7420726570726573656E7461623D
:100790006C650000454E4F4D454D202D206F757402
:1007A000206F66206D656D6F7279000045494E5669
:1007B000414C202D20696E76616C696420617267FE
:1007C000756D656E7420746F2066756E6374696FE5
:1007D0006E000000556E6B6E6F776E206572726FE3
:1007E0007200000010B5484304460CF041FF002899
:1007F00005D00021002C02D0641E0155FAE710BD7F
:1008000000B589B000926A4600F0EEFB09B000BD69
:1008100070B506460CF0C4FB046805460A220021A8
:10082000304600F0A9FB2C6070BD30B50B46014688
:1008300000202022012409E021FA02F59D4205D37F
:1008400003FA02F5491B04FA02F52844151EA2F129
:100850000102F1DC30BD202A04DB203A00FA02F16B
:10086000002070479140C2F1200320FA03F319439E
:1008700090407047202A04DB203A21FA02F0002140
:10088000704721FA02F3D040C2F1200291400843A0
:10089000194670472DE9FF4F1C4681B00021D4E96D
:1008A000016791464FF0FF358A468846A1696D1C65
:1008B00002988847216A834688470028F6D1BBF111
:1008C000FF3F0CD026F4C066002F1ADD700615D548
:1008D000BBF12B0F0AD0BBF12D0F0FD104E04FF06D
:1008E000FF3005B0BDE8F08F46F48066A1696D1C4D
:1008F000029888477F1E8346002F02DDBBF1300F30
:1009000003D0B9F1000F2AD025E0A1696D1C46F48F
:1009100000767F1E029888478346002F05DDBBF1D5
:10092000780F06D0BBF1580F03D0B9F1000F10D0EB
:1009300011E0B9F1000F02D0B9F1100F0BD1A1698C
:100940006D1C26F400767F1E02988847834610208F
:1009500000E0082081464FEAE970009017E00A2085
:10096000F8E74346AAFB092803FB0980DDF800C02D
:100970007F1E0AFB0C0112EB0B0A41EBEB78A1691D
:1009800046F4007605F10105029888478346002F5A
:1009900006DD4946584600F00DFD5FEA000BE0D544
:1009A000E16902988847B00502D46FF0010098E72A
:1009B000F00718D1700610D57005514605D50023F3
:1009C000D1EB030163EB080200E042462068031DFF
:1009D00023600068C0E9001205E02068011D216065
:1009E0000068C0E900A828467BE72DE9FF5F1D46A7
:1009F0004FF0FF3BD5E9014691465F464FF00008B6
:100A0000A9697F1C01988847296A8246884700287F
:100A1000F6D1BAF1FF3F0CD024F4C064002E19DDEA
:100A2000600614D5BAF12B0F09D0BAF12D0F0ED1F3
:100A300003E0584604B0BDE8F09F44F48064A9691F
:100A40007F1C01988847761E8246002E02DDBAF18F
:100A5000300F03D0B9F1000F26D032E0A969761E1D
:100A600044F400747F1C019888478246002E05DDFF
:100A7000BAF1780F06D0BAF1580F03D0B9F1000FD0
:100A800010D01EE0B9F1000F02D0B9F1100F18D14B
:100A9000A969761E24F400747F1C01988847824659
:100AA000102002E0082000E00A20814609E008FB4F
:100AB0000908A969761E44F400747F1C01988847D0
:100AC0008246002E05DD4946504600F073FC0028A2
:100AD000EDDAE96901988847A00502D46FF00100BA
:100AE000A8E7E00725D1600613D5600502D5C8F157
:100AF000000000E0404629680A1D2A6009682205B6
:100B000001D5087015E0220701D5088011E00860C2
:100B10000FE02868011D29600068210502D580F8D2
:100B2000008006E0210702D5A0F8008001E0C0F8AF
:100B3000008038467EE72DE9FF5FD2E901A74FF03C
:100B40000008916999461446DDF838B04646019888
:100B50008847054659EA0B0005D009E0A169761CD3
:100B6000019888470546216A284688470028F5D11C
:100B7000681C03D05FEACA7005D015E04FF0FF3063
:100B800004B0BDE8F09F2068011D2160D0F800800E
:100B90000AE05FEACA7001D108F8015BA169761C1E
:100BA0007F1E019888470546002F1ADD681C18D063
:100BB000B9F1000F0DD0E81705EBD060421120F01D
:100BC0001F0059F822102A1A012090400142E0D15A
:100BD00007E0BBF1000FDCD1216A284688470028D6
:100BE000D7D0E16901988847BBF1000F07D1002EEB
:100BF00005DD5FEACA7002D1002188F80010A06804
:100C0000B84203DDBBF1000F03D017B16FF0010054
:100C1000B6E73046B4E700002DE9FF4F087883B00F
:100C20009946FF2805D0491C2D2804D00024002017
:100C300008E000200BE00124F9E700EB800003EB63
:100C40004000491C0B78FF2BF7D104B14042002330
:100C50000293147819461D462D2C01D02B2C04D15B
:100C6000521C2D2C13D000240294AA461478FF2C79
:100C70000FD00A25A3FB057801FB05814FF0000C7E
:100C800003FB0C11521CE3194AEB0101EEE70124AE
:100C9000EAE7814453EA010002D019F5C87F06DA79
:100CA00003980021C0E9001107B0BDE8F08F0025CE
:100CB000AE4E2F46DFF8B882184600F049FCCDE969
:100CC0000001B9F1000002DAC9F1000400E00446B5
:100CD0000023A74A1AEB030B42EB045A12E0E00789
:100CE00007D02A4633463846414600F02EFA0746DA
:100CF00088462A4633461046194600F026FA05462D
:100D00000E466410002CEAD1DDE90001B9F1000FB4
:100D10005A46534606DA00F08AFA3A46434600F04D
:100D200086FA05E000F011FA3A46434600F00DFA63
:100D3000029A0AB181F00041039AC2E90001B3E7C7
:100D40002DE9FF4F1F468DB0D7E901464FF0FF3820
:100D50002E2045464FF000090B90B9696D1C0E9886
:100D60008847396A824688470028F6D1BAF1FF3FA2
:100D70000AD024F4D064002E11DDBAF12B0F08D074
:100D8000BAF12D0F0BD102E0404611B08DE744F4CB
:100D90008064B9696D1C0E9888478246761E694644
:100DA000600501D52D2000E02B208DF8000001F119
:100DB000010B0DF1200809E0B9696D1C0E988847F8
:100DC00082460F9844F40074761E0560002E02DD02
:100DD000BAF1300FF0D00B998A453ED144F080042F
:100DE00006E00F99681CA9F1010944F40074086039
:100DF000B9696D1C761E0E98884782463028F0D05F
:100E00002BE00B998A4505D1200603D444F08004D9
:100E1000761E18E050460CF00DFE08B30DF11301DC
:100E2000761E44F400748B4508D2AAF130000BF80A
:100E3000010B200607D5A9F1010003E0200602D42A
:100E400009F101008146A00502D50F99681C0860D0
:100E5000B9696D1C0E9888478246002ED1DC53E09C
:100E6000002E51DDBAF1650F02D0BAF1450F4BD11A
:100E7000A00549D5B9696D1C24F44074761E0E98FE
:100E800088478246002E0CDD2B2804D0BAF12D0FA6
:100E900007D144F48074B9696D1C0E988847824666
:100EA000761EE00501D52D2100E02B2108F8011B5D
:100EB000CDF82C8021E00DF12901761E44F4007458
:100EC00088450CD2AAF1300010F0FF0088F800002D
:100ED00002D10B99884509D908F1010806E0E0051F
:100EE00001D5244801E042F20F708146B9696D1CBA
:100EF0000E98884782460F980560002E04DD504604
:100F00000CF098FD0028D6D1F9690E988847FF208B
:100F10008BF8000088F800000020069007904B46F0
:100F20006A4608A906A8FFF777FEA00502D46FF06D
:100F300001002AE714F0240F0AD0E00714D1DDE9FC
:100F400006123868031D3B600068C0E900120BE020
:100F5000DDE9060100F008FB0146E00704D138682E
:100F6000021D3A600068016028460EE70000144048
:100F70000000F03FF1D8FFFF2DE9F04791460F4602
:100F800080460446002614F8015B2DB1FFF778FA7D
:100F90000068405DC007F6D12B2D02D02D2D18D052
:100FA000641E4A463946204600F026FA27B13968C1
:100FB000A14201D1C7F8008071054FF002040BD5A2
:100FC0004042002803DD0BF0EBFF0460A007BDE802
:100FD000F08746F48066E4E70028F8DA0BF0E0FFDB
:100FE00004606FF00040F2E7024B9361024BD36163
:100FF00000F0F4B9BD030008D90300082DE9FE4F45
:10100000804681EA0300C00F0C46009021F00041A9
:1010100023F00045B8EB0200A94105D24046214625
:1010200090461C460B46024623F00040104347D032
:10103000270DC7F30A00C3F30A510290401A01902A
:1010400040286BDAC3F3130040F4801B00989246EB
:1010500020B10023D2EB030A63EB0B0B0198594636
:10106000C0F140025046FFF7F6FB06460D465046DB
:101070005946019A00F08CF910EB080061410024F8
:1010800087EA115284EAE7731A4340D0009A62B3A8
:10109000019A012A4FEA075215DC001B61EB02019D
:1010A0004FF0004202EA0752CDE90042001C41F530
:1010B000801132462B4600F0FDF903B0BDE8F08FF9
:1010C00040462146F9E7001B61EB0201001C41F597
:1010D000801300185B412018A2F5001747EB0301AD
:1010E00040EAD570B6196D4111E06D084FEA360639
:1010F00045EAC0754FEA0752001B61EB0201001C74
:1011000041F5801149084FEA30000019514132463B
:101110002B4603B0BDE8F04F00F0BDB900980122A6
:1011200040000023D0EB020263EBE07300982146FD
:101130004FEAE074B8EB000061EB0401E9E783F0EB
:1011400000435BE781F0004158E72DE9FE4F81EA5B
:10115000030404F0004421F0004100944FF0000B20
:1011600023F0004350EA01045ED052EA03045BD04E
:10117000C3F30A54C1F30A552C44A4F2F334019486
:10118000A0FB0254C1F3130141F48011C3F3130314
:1011900043F4801301FB024400FB034E840A970AC8
:1011A00044EA815447EA8357A4FB076802958D0AF5
:1011B00005FB07854FEA932C04FB0C542705029D81
:1011C0004FEA065847EA1637B5EB08056EEB070CF1
:1011D000870E920E47EA811742EA8312A7FB0201AB
:1011E000B6EB0B0164EB00042B0D43EA0C335E18E5
:1011F00044EB1C50DA465146E7FB0201C5F31304E9
:101200004FEA0B3343EA14534FEA0432019C43EA9A
:101210000603A4F10C040294009CCDE900B400F094
:1012200049F903B0BDE8F08F00200146F9E72DE948
:10123000F04D81EA030404F0004B21F00045144610
:101240004FF0000A23F0004150EA050220D054EA92
:1012500001021DD0C5F30A570246C5F31303C1F3BB
:101260001300C1F30A5640F4801543F48013A7EB32
:101270000608101BD64608F2FD3873EB050002D3B2
:1012800008F1010801E092185B41B8F1000F03DAA0
:1012900000200146BDE8F08D00204FF48011064685
:1012A00084460EE0171B73EB050705D3121B63EB97
:1012B000050306434CEA010C49084FEA3000921836
:1012C0005B4150EA0107EDD152EA030012D082EAF5
:1012D000040083EA0501084305D0101BAB4106D288
:1012E0000122002306E000224FF0004302E06FF0ED
:1012F000010253101AEB06004CEB085110EB0A00E8
:1013000041EB0B01BDE8F04D00F0C5B8C1F30A5246
:10131000C1F3130140F2FF3341F480119A4202DA23
:1013200000200146704740F233439A42A2F2334212
:1013300002DC5242FFF79EBAFFF78DBA30B5041EA9
:1013400071F1000404DB4FF00044404264EB010102
:10135000141E73F1000405DB1C464FF0004352429B
:1013600063EB0403994208BF904230BD064C074D21
:1013700006E0E06840F0010394E807009847103465
:10138000AC42F6D3FEF78CFF107B0108307B0108DE
:10139000202A06DBCB17203A41FA02F043EAE07339
:1013A00006E041FA02F3D040C2F120029140084326
:1013B000194670473A2800D2303820F02002412ADE
:1013C00001D3A2F13700884201D34FF0FF307047BC
:1013D000026811441378016018467047D1600449CF
:1013E00051610449116200211161114600F0D8B821
:1013F000D1130008890400082DE9F05F82460078C7
:10140000002715468B460AF10104B946302801D061
:101410009DB113E014F8010B0127782803D0582858
:1014200001D045B10AE00DB1102D07D100271025DC
:1014300014F8010B02E0082500E00A250026B0465A
:101440000EE005FB080005FB06F1012701EB104645
:101450001FFA80F8B6F5803F00D3B94614F8010BA7
:101460002946FFF7A7FF0028EBDABBF1000F05D0F4
:101470000FB1641E00E05446CBF80040B9F1000FF4
:1014800006D00BF08DFD02210160C81EBDE8F09F63
:1014900048EA0640FAE710B5141E73F1000408DAB2
:1014A000401C41F1000192185B411A4301D120F028
:1014B000010010BD2DE9F04D92469B4611B1B1FAE5
:1014C00081F202E0B0FA80F220329046FFF7C3F9D1
:1014D00004460F4640EA0A0041EA0B0153465A46C9
:1014E000084313D0114653EA010019D0C8F1400255
:1014F0005046FFF7BFF905460E465046594642464C
:10150000FFF7A9F9084305D0012004E02046394639
:10151000BDE8F08D0020054346EAE0762C433743D2
:101520000A986305E40AA0EB08000022FD0A44EAD9
:1015300047540A3002D500200146E9E70105101999
:101540006941DDE9084500196941BDE8F04DA2E7B0
:101550000EB540F2334202920022CDE9002213463A
:10156000FFF7A8FF03B000BD01F0004330B421F045
:10157000004150EA010206D00A0DA2F56072C1F3E3
:101580001301002A02DC30BC00207047440F44EAFB
:10159000C104C100E01830BC00EBC25000F096B9A5
:1015A0002DE9F34F8BB04FF0000801F10C000C4611
:1015B0004FF0010B46460DF1080A019062690121C6
:1015C00001989047051E2DD0252D2CD0216A8847E3
:1015D000C0B16269012101989047216A88470028BB
:1015E000F7D1411E62690198904700E0761CA1691D
:1015F0000B988847216A88470028F7D1E1690B9842
:101600008847DBE7A1690B9888470746A84201D1C4
:10161000761CD3E7E1690B9888477F1C02D1B8F1AB
:10162000000F6FD046E1002762693D4639460198B8
:1016300090472A2804D16269012101989047012529
:10164000DFF884926269012101989047A0F130018E
:101650000A290AD24F45E5DC07EB870100EB410779
:10166000303FDFD445F01005ECE7E90601D46FF018
:1016700000476C280AD04C2814D0682815D06A2856
:101680000DD074281CD07A281AD01DE0626901217F
:10169000019890476C2802D045F0040514E045F00D
:1016A00002050DE045F020050AE06269012101987C
:1016B0009047682802D045F0080505E045F400652C
:1016C0006269012101989047C4E9015765283DD01E
:1016D00019DC58287AD00CDC452837D004DC2528C2
:1016E00026D0412831D131E046282FD047282CD1AF
:1016F0002CE05B2877D0612828D063287CD0642830
:1017000023D15AE0D0E06F2848D008DC66281DD0ED
:1017100067281BD0692821D06E2816D127E07028B1
:1017200045D0732868D0752847D078280DD14DE072
:10173000A1690B988847054625283FF469AFE16900
:101740000B9888476D1C3FF46AAFB3E023466A46A6
:101750006FF001000B99FFF7F3FA9EE045F04000AF
:101760006060A80723464FF0000236D43EE0E80749
:101770007FF447AF2068011D21600068290501D56D
:1017800006701BE7290701D5068017E7A90703D5CF
:10179000F117C0E9006111E706600FE745F040006E
:1017A0006060A80723464FF0080216D41EE040F6FA
:1017B0000E0125EA0100606016E045F0400060601F
:1017C000A80723464FF00A0207D40FE045F0400077
:1017D0006060A80708D5234610226FF001000B991E
:1017E000FFF758F859E007E0234610226FF0010098
:1017F0000B99FFF7FAF850E04FF000094F464B46BF
:10180000632802D05B2806D040E0E80601D401201E
:10181000A06001273AE062690121019890475E28A3
:1018200005D14FF001096269494601989047216945
:1018300039B900210A46534643F82120491C08299A
:10184000FADBB0B3216969B9C11700EBD16253115A
:101850000AEB830122F01F02821A01200B689040DC
:1018600003430B6062690121019890475D28E8D12C
:10187000B9F1000F09D00020514651F82020D24381
:1018800041F82020401C0828F7DB02AB22460097D5
:101890006FF001000B99FFF74EF900280CDA401C9D
:1018A00008D1BBF1000F05D04FF0FF300DB0BDE8FF
:1018B000F08FFFE74046F9E7E90701D108F1010899
:1018C00006444FF0000B79E6CCCCCC0C0029A8BF25
:1018D0007047401C490008BF20F00100704710B459
:1018E000B0FA80FC00FA0CF050EA010404BF10BC0E
:1018F000704749B1CCF1200421FA04F411FA0CF13B
:1019000018BF012121430843A3EB0C01CB1D4FEA73
:1019100000614FEA102042BF002010BC704700EB6E
:10192000C35010440029A4BF10BC7047401C49009C
:1019300008BF20F0010010BC704770B58C1810F87B
:10194000015B15F0070301D110F8013B2A1106D104
:1019500010F8012B03E010F8016B01F8016B5B1E1E
:10196000F9D12B0705D40023521E0DD401F8013BF9
:10197000FAE710F8013BCB1A921C03E013F8015B65
:1019800001F8015B521EF9D5A142D8D3002070BDE9
:10199000094B10B5044600205A78022A0AD203F1F6
:1019A0000C00246800EBC200521C0460096841600E
:1019B000D0B2587010BD0000DC00002470477047A2
:1019C0007047704770477047704702F091BF000042
:1019D0002DE9F05F524D0446DFF848A1002640F69D
:1019E000C4184FF0FA094FF0FF3B2878C8B3D5E987
:1019F0000612204608F000FC00283EDB2188414505
:101A00003BD2E0783C2838D2474F44F62462A67097
:101A10002146386811F0ACFE38689AF81610C1708B
:101A200080F802902869002827DA2878012824D134
:101A30006869002802DAAE63401C686101463B4BCE
:101A400000EB4100AA6B03EB80000769974209D8BD
:101A50004769974206D9B0F90C10A961B0F90E0098
:101A6000E8610AE04069904207D8491C69619868BA
:101A7000401E884201D8C5F814B06878C8B3D5E9CB
:101A80000C12204608F0F2FB00283EDB218841457D
:101A90003BD2E0783C2838D2A6702146244C44F64C
:101AA0002462206811F064FE20689AF8BE19C170A3
:101AB00080F80290A86A002827DA6878012824D1E3
:101AC000E86A002802DAEE63401CE8620146194B1E
:101AD00000EB4100EA6B03EB80000469944209D8F3
:101AE0004469944206D9B0F90C102963B0F90E008C
:101AF00068630AE04069904207D8491CE962986827
:101B0000401E884201D8C5F82CB0012100200AF0FF
:101B1000C5F9BDE8F05F012108460AF0BFB9000031
:101B200008010024306D002464000024A46901240D
:101B30006C0000248498012410B50124034861033B
:101B400002F0C2FE00B10024204610BD0008025879
:101B50000146014804F042BB88C10624044810B580
:101B600004F04EFB042801D0012010BD002010BD60
:101B700088C1062410B500F015F8012801D0022014
:101B800010BD074804F0A4FB040006D104484FF43C
:101B9000804104F0BDF900B10124204610BD0000D1
:101BA00088C1062408B501208DF80000FFF7C4FFA6
:101BB00010B900208DF800009DF8000008BD00005D
:101BC00038B50024009313460A460146034804F042
:101BD000ABFC00B10124204638BD000088C10624BA
:101BE00038B50024009313460A460146034804F022
:101BF0006DFD00B10124204638BD000088C10624D7
:101C000010B50B4B0B4C30B101221846402102F0AD
:101C100064FE012205E000221846402102F05DFE2C
:101C200000222046012102F058FE002010BD0000D5
:101C300000000258000802580C4910B50978012923
:101C400011D10B4C490228B10122204602F045FE79
:101C5000012204E00022204602F03FFE002220463E
:101C6000202102F03AFE002010BD00002C000024CC
:101C700000040258FEE70000F0B5BFF34F8FBFF33A
:101C80006F8F1D4900200860BFF34F8FBFF36F8F28
:101C90001A4C216841F400312160BFF34F8FBFF32C
:101CA0006F8F164970310860BFF34F8F081F0068AF
:101CB00043F6FF75104E1036C0F34E31C0F3C90322
:101CC00005EA4112184642EA80773760401EFAD290
:101CD000491EF5D2BFF34F8F206840F4803020605A
:101CE000BFF34F8FBFF36F8F03484C30016841F053
:101CF00004010160F0BD000050EF00E014ED00E0D1
:101D000010B500240346A1F10B0040F28522904259
:101D10001AD816480A461946FEF7C2FB134874380B
:101D200010F0F0FB80B111487438B0F87C00B0F5C9
:101D3000005F0BD0B0F5A04F0DD0B0F5174F10D00D
:101D40000BA00BF0E9F8FF24204610BD10A00BF00B
:101D5000E3F80124F8E7154802240188491C0180B2
:101D6000F2E713A00BF0D8F80324EDE7DCC9012457
:101D7000476574204172746E657420556E6B6E6F8A
:101D800077205061636B6167652E0D0A00000000CB
:101D9000476574204172746E657420506F6C6C20BE
:101DA0005061636B6167652E0D0A000048010024D5
:101DB000476574204172746E65742054696D656363
:101DC0006F6465205061636B6167652E0D0A0000CA
:101DD0002DE9F0418CB04FF0FF3600200A903148D9
:101DE00004680123DFF8C08000215A02D8F80C00F3
:101DF00001F05CFB05001AD02C4F38680EF046FE4F
:101E0000386801222AA10EF0A1FF06000BD1D8F8F4
:101E10000C10042238680AAB0FF061F806460A98E5
:101E2000042800D1002538680EF030FEADBB200E2E
:101E30008DF80400234B210C8DF80510220A8DF833
:101E4000062008448DF807401119019D08441D63C0
:101E5000C4B2D8F80C004546017861408DF80010F6
:101E6000417861408DF80110817861408DF8021051
:101E7000C07860408DF80300DA2C00D9DA24684677
:101E8000082102AA12F0FCF8E868202202A92044E6
:101E9000001DFEF798FB00B900260CB03046BDE8E7
:101EA000F081000000E8F11F080100245000002428
:101EB000303A2F64616D65692F636572742E6269B3
:101EC0006E00000034C701242DE9F04114490125BA
:101ED00004460FF0C0F820B112A021460BF01CF808
:101EE0001AE00F4C16A0E388A28821680BF014F8C2
:101EF0002068014600F100600268D0F8020097B245
:101F000086B23A4619A033460BF006F8A088B842CC
:101F100003D1E088B04200D100252846BDE8F08119
:101F2000905D01244669726D77617265202573208A
:101F30006E6F7420657869737465642E200D0A00D5
:101F400046696E64206669726D776172652C2073D4
:101F5000697A653D25642C20646174653D25642C97
:101F60002074696D653D25640D0A00005265616449
:101F700020666C6173682073697A65203D20256452
:101F80002C20646174653D25642C2074696D653D69
:101F900025640D0A0000000070B50024FEF787F9E3
:101FA000064D28680FF086F800B9012428680EF065
:101FB0006DFDFEF77EF9204670BD00004C00002448
:101FC0001149104810B50860084601F08DFD0E4813
:101FD0000021002214304160022181600146143842
:101FE00001F0FCFC0848002101F0C5FD0649102263
:101FF0000548143101F0F2FCBDE810400248102100
:1020000001F0B9BD0074004010D301240B464FF01D
:10201000000218B11021024801F0A0BD0021FAE72A
:1020200010D301247047002310B503E0C45C4C407A
:10203000C4545B1C9342F9DB10BD00000149002031
:1020400008707047DC0000242DE9FF4F0F4614464E
:1020500044F63C224FF000092DED108B83B04FF079
:10206000FF36098800EE101A798800EE901A797907
:102070000191169997F806B097F807A011440091BE
:10208000396821607968B8EE400AB8EE608A61600C
:10209000FB499FEDFCAB9FEDFDFADFEDFDFAB0EEE5
:1020A000009B9FEDFCEBDFEDFD8AFD4D40F235120C
:1020B0004FF0000810FB02F001EBC0000290C18954
:1020C000881980B209B1401E80B29FEDF61AB11E88
:1020D000152970EE41BA38EE41BA46D2DFE801F078
:1020E0000B2656644585459D45BD45FC45FB45FA97
:1020F000F9F8F7F6F500009A012101F045FC00EE31
:10210000900AA861F8EEE00AB7EEE01A21EE091B8A
:1021100081EE0E2BFDEEC20B10EE900AE861002856
:1021200023DC40F2FF702080608002E2009A0121EF
:1021300001F02AFC00EE900AA861DC49F8EEE00A02
:10214000B7EEE01A21EE091B81EE0E2B9FEDD61A99
:10215000F7EEC20B10EE900A20EE811A884285ED50
:10216000051A03DAD249C1F8008057E1D0480121AD
:10217000DFEDD01AC1EE810A0160CF49C5ED050A35
:10218000FDEEE00A10EE900A088047E1009A012176
:1021900001F0FAFB00EE900AA861F8EEE00A80EE8A
:1021A000A81A85ED081A39E1009A022101F0ECFB2A
:1021B00000EE100AA861BD49B8EEC00AB7EEC02A09
:1021C00082EE0A0B20EE090BF7EEC00BB0EE410ACF
:1021D00010EE900A0BEE201A0BEEA00A8842C5ED15
:1021E000090AB0EE418A78DB18E1009A022101F079
:1021F000CBFB00EE100AA861B8EEC00AB7EEC02A09
:1022000082EE0A0B20EE090BF7EEC00BB0EE410A8E
:10221000C5ED0A0A0BEEA00A00E1009A022101F0C6
:10222000B3FB00EE900AA861A048F8EEE00AB7EE12
:10223000E03A83EE0A2B22EE092BF7EEC20BC5ED36
:102240000B0A0BEE201AA96A8142B0EE418A03DA2A
:1022500010EE901A814240DBE0E0009A022101F08A
:1022600093FB00EE100AB8EEC00AB7EEC01A81EE7A
:102270000A0B20EE090B9FED911BA86120EE010BCC
:10228000B7EEC00B85ED0C0AB7EEC00A0AF014FFDA
:10229000B7EEEBCA20EE0CDB95ED0C0AB7EEC00AE8
:1022A0000AF0B2FEB7EECBBAB0EE4D1B0BEE001B40
:1022B0009FED84DB31EE0D0BB7EEC08B95ED0C0A74
:1022C000B7EEC00A0AF0A0FE08E091E07AE071E003
:1022D00068E05FE039E024E00FE054E020EE0CCB52
:1022E00095ED0C0AB7EEC00A0AF0E6FE0BEE40CB05
:1022F0003CEE0D0BB7EEC00B90E0009A022101F00E
:1023000043FBA861A0F5004000EE900AF8EEE00A59
:1023100060EE8F0A60EEAF0AC5ED0D0A30EE200ABE
:102320007CE0009A022101F02FFBA861A0F500409B
:1023300000EE900AF8EEE00A60EE8F0A60EEAF0A57
:10234000C5ED0E0A38EE208A68E0009A012101F0FE
:102350001BFB00EE900AA861B8EEE01AC1EE280A55
:10236000C5ED0F0A1698008801EE100AB8EE411A62
:1023700021EE201ADDED200AF8EEE00AB4EEE01AB4
:10238000F1EE10FA4AD284F8058084F8068084F8C9
:10239000078043E0009A012101F0F6FAA861C0B27B
:1023A00001903BE0009A012101F0EEFA00F0FF0BF2
:1023B000A86133E0009A012101F0E6FA00F0FF0A7B
:1023C000A8612BE0009A012101F0DEFA00EE900AEC
:1023D000A861F8EEE00AB7EEE01A21EE091B81EEE3
:1023E0000E2BFCEEC20B10EE900A00F0FF0915E078
:1023F000009A012101F0C8FA00EE900AA861334961
:10240000B8EEE01AC1EE280A10EE900AC5ED010AF6
:10241000884203DADFED2E0AC5ED010A761C76B29A
:10242000172E01D002984AE6787918B9F87908B9D8
:10243000B87920B3B9F1000F05D00198607184F824
:1024400006B084F807A0607900EE900AB8EE601A32
:10245000D5ED080A21EE201ABCEEC11A11EE100AC1
:102460006071A07901EE100AB8EE411A21EE201A2F
:10247000BCEEC11A11EE100AA071E0792AE034E036
:10248000306D002400000000E0FFEF4000F07F45C9
:10249000000000380000000000E06F4000007F43B3
:1024A0004801002400F0FF4400000442CDCC4C3D24
:1024B0002801002400007A440A0000244AD8124D62
:1024C000FB2109400000000000FE9F40CDCCCC3D28
:1024D000CDCCCC3D01EE100AB8EE411A61EE200AD7
:1024E000FCEEE00A10EE900AE07140F6FF72FCEE9E
:1024F000C00A194910EE900A208010EE100A884296
:1025000002DB4046228007E0B5EEC00AF1EE10FA89
:1025100005D84046A4F800806071A071E071BCEE5F
:10252000C80A10EE100A608018EE100A884202DB1A
:102530006280404607E0B5EEC08AF1EE10FA05D899
:102540004046A4F802806071A071E07103B0BDEC58
:10255000108BBDE8FF8F000000F07F4510B506F03E
:102560003FFD10F093FD06F047FD06484FF4004193
:10257000006800F58B50016040210160012101607D
:1025800010BD000088D2012470B5A2B00646002418
:10259000694601258DF80450680306908DF80F50A8
:1025A0004FF4C3608DF80E500D9020208DF81D4023
:1025B0008DF80C4009948DF81F4012948DF832501C
:1025C0008DF828408DF8605017904FF040508DF8EE
:1025D00038400F9402948DF861408DF81C4014949B
:1025E0008DF862400B948DF81E500090A8038DF872
:1025F00011508DF840408DF83140059002208DF843
:1026000012408DF85640169030468DF820508DF8C7
:1026100054408DF830408DF810508DF80D408DF8F5
:10262000554011948DF84C5000F0CEF91B9569057A
:102630008DF871404FF406708DF8685019948DF83C
:1026400080408DF870401F918DF878401D9119A938
:102650008DF881402190304600F066F922B070BDBF
:102660002DE9F047846A00F1180692468B6800272E
:10267000254656F82420D2F80CC0BCF1000F63DBCD
:1026800091F800805FEA487837D5D1F824806FF35D
:102690000F0C4CEA080C4CF4803CC2F80CC0D0F88B
:1026A00000C0DCF8608048F48018CCF8608091F8B5
:1026B00000C05FEA0C7C20D5B1F82CC0A2F80AC09B
:1026C000D2F80CC04CF4003CC2F80CC0D1F83080F9
:1026D0002CF4402C4CEA080CC2F80CC0D0F800C016
:1026E000DCF8648048F48018CCF864800068D0F886
:1026F00050C04CF0806CC0F850C00878C0060BD5B4
:102700009068D1F818C06FF30D0040EA0C0090609B
:10271000D06840F08060D060087810F0140F14D0BA
:10272000D068641C042C40F04040D06000D3241FCB
:10273000012756F82420D068002806DA56F825002C
:10274000C16821F00041C1608DE018687F1C1060F5
:102750004FF000099068D3F804C06FF30D0040EA11
:102760000C009060D3F80880DFF8B8C1B8F1000F12
:102770000BD04346D8F80080C2F8048000EA0C0071
:10278000B3F8048040EA084003E000EA0C00C2F815
:10279000049090600878C006D0680FD5B1F820800A
:1027A00020F4F00040EAC840D060D1F81C806FF3FC
:1027B000110040EA080040F480201CE0D1F80480B9
:1027C0006FF30E0040EA0800D06091F800805FEAE5
:1027D000C87806D0D1F8148020F4403040EA0800D0
:1027E000D0600878800607D5D068D1F8108020F036
:1027F000406040EA0800D0600878400707D590683C
:10280000D1F8288020F4404040EA08009060D06869
:1028100020F0804040F02040D06091F800805FEAD6
:10282000887869D5D1F80C8020F0607040EA080003
:1028300061E0641C042C00D3241F56F82420D068C7
:10284000002813DA56F8251000200AE0CA686D1C2B
:10285000042D22F00042CA6000D32D1F401C56F800
:102860002510B842F2D30220BDE8F08718687F1C1B
:1028700010609068D3F804806FF30D0040EA080000
:102880009060D3F80880B8F1000F0BD04346D8F819
:102890000080C2F8048000EA0C00B3F8048040EA2B
:1028A000084003E000EA0C00C2F804909060087849
:1028B000C006D06808D5D1F81C806FF3110040EA3B
:1028C000080040F4802011E0D1F804806FF30E007E
:1028D00040EA0800D06091F800805FEAC87815D01F
:1028E000D1F8148020F4403040EA0800D06020F095
:1028F000804040F00040D0609B68002B99D19068E8
:10290000BAF1000F04D040F0004003E0D068EEE7D9
:1029100020F000409060D06840F08050D0600020EF
:102920003461A1E7FFFF00C030B5026802F58052B4
:10293000136847F60204A3430C68234313600A7923
:102940000B7B120342EAC3338A681343026802F521
:10295000805254684DF20105AC431C4354604B7BDC
:102960000A6A42EA0343026802F58052D2F8004143
:10297000124D2C401C43C2F800410A7D4B7F1201CE
:1029800042EA03330A691343026802F58052D2F81F
:1029900004410B4D2C401C43C2F8044100688A6975
:1029A000097F00F5805042EAC171D0F80821054B3B
:1029B0001A400A43C0F8082130BD000000C0FEFFE5
:1029C000EFEFC0FFFFFFC07F30B50B688A680C7B5C
:1029D0001A430B79DB0643EAC4531A434B7B42EAA2
:1029E00083528B7B42EA4352CB7B42EA03530A7CFD
:1029F000002A7CD0002243EAC2434A7C002A78D0D5
:102A0000002243EA42428B7C42EA03424B691A436A
:102A10008B691A430B7F42EA03324B7F42EAC3239E
:102A20008A7F002A66D0002243EA8222CB7F42EAD4
:102A3000432391F82020002A7ED0002243EA02227C
:102A40004B6A1A4391F8283042EA0313CA6A1343C7
:102A500002681468434D2C401C43146091F83C20DC
:102A600091F83830520642EA036291F8303042EA77
:102A7000834291F8313042EA434391F83220BAB3AD
:102A8000002243EA02434A6B134302685468364DFE
:102A90002C401C43546091F840304A6C42EA0323B6
:102AA0000268D46840F20F15AC431C43D46091F81F
:102AB00054300A6D42EA430391F84C20EAB30022F5
:102AC000B1F84840D20142EA044213430268146F4D
:102AD0004FF60D752C401C43146791F8553091F852
:102AE000562042EA43030268D2F8904003E02BE00C
:102AF00032E02BE02CE024F003041C43C2F89040A9
:102B00000268D2F8003D8C6D23F072032343C2F8B3
:102B1000003D91F86020CB6D12B30022006843EABB
:102B2000821291F8613091F862101B0143EAC101F1
:102B30000A43D0F8301D01E00CE00FE021F07B01EA
:102B40001143C0F8301D30BD012254E7012258E77F
:102B5000012269E7012271E7012292E70122AFE732
:102B60000122DBE7838004000080F8C070B50024F8
:102B70009C4D0122214652288AB070D019DC46288B
:102B800033D00DDC984E422870D004DC31286ED052
:102B9000412829D14BE0432875D04428F9D183E05E
:102BA0004B2827D04C283FD04E282BD05028F0D18E
:102BB0005FE06B2820D00CDC58287BD004DC532845
:102BC0002ED05428E5D159E0592879D06328E0D196
:102BD0007DE06E2806D0722871D0732815D0772832
:102BE000D7D105E006F000F9F8E000F081FB19E02C
:102BF0006A71F3E0312200E030220B21432000F023
:102C00008DFDEBE010F0C2FDE8E07848437D1BB19C
:102C1000417580F8BD19E1E0427580F8BD29DDE01D
:102C200009F0FAF80446D9E005F042FAFAE700F0B4
:102C300051FE08A909F02EFC01280446D4D16C48A5
:102C40006C4900780978084304D0307800240128C2
:102C500008D0C3E009F0E0F801280446C4D109F027
:102C600007FCBBE064A00AF057F9B7E010E08AE087
:102C700009E000F02FFE09F093FCD3E700F02AFEF4
:102C800009F0B6FCAAE062490878401C0870A5E08B
:102C900000F020FEEA884FF47A7301465D4804F0A4
:102CA000A9FCBFE706E00BE0307808B1317095E091
:102CB000327093E0FA20FEF7A3FFFA2004E028E048
:102CC0000020FEF79DFF0020FEF7B6FF86E0E888B3
:102CD000B0B151484178722904D0672907D06229E0
:102CE0000AD00DE0801CFDF793FDA87008E0801C61
:102CF000FDF78EFDE87003E0801CFDF789FD28716B
:102D00000021287900900846EB78AA7809F0F4F8B9
:102D100088E706916846A9680CF01CFF00285DD181
:102D20003EA168460CF0FEFE06004DD03F4806A9C5
:102D3000026807A80FF062FD002845D13648A9783F
:102D40004030C38882883AA00AF0E6F8DDE9061030
:102D50004218314931F8443F1380069A498810449B
:102D60004180FDF7A4FADDE906100022091DB047F5
:102D70003AA168460CF0D6FE8047FDF79AFA07980C
:102D80000DF0B2F920E0374806906846A9680CF0CB
:102D9000E1FE18BB34A168460CF0C4FE050013D058
:102DA000FDF785FA334E012306A91A463046A84797
:102DB0000699024630A00AF0AFF831683BA00691B0
:102DC0000AF0AAF8FDF775FA68460CF0A9FE002192
:102DD00002460846904768460CF08EFE0AB0204630
:102DE00070BD0000CC000024C8000024306D002419
:102DF00000000024010000244C4F473A2053442097
:102E000063617264206572726F72210D0A0D0A008F
:102E10000700002444CF0124505D01246578706FC1
:102E200072745F666C617368000000001800002413
:102E3000577269746520666C617368207265636F90
:102E40007264203D2025642C20646174653D2564F6
:102E50002C2074696D653D25640D0A007265626FF2
:102E60006F7400007856341277725F666C61736815
:102E70000000000000FC0108577269746520666C50
:102E80006173682061646472203D2030783038308E
:102E900031464330302C20646174613D25642C2020
:102EA000726573756C743D25640D0A00526561642A
:102EB00020666C6173682061646472203D20307804
:102EC00030383031464330302C20646174613D2508
:102ED000640D0A00002200F001B800000E4B30B56E
:102EE0000546DC7C0120032C15D8D87C00241C541A
:102EF000D87C03EB80004560DD7C03F110002A5490
:102F0000D87C421CDA74303008703A2048702F2088
:102F100088700020CC7030BD74C10624C268D1E92D
:102F2000002342EA03220B89097B1B0443EA016167
:102F30000A43C260002070478268D1E9002342EA58
:102F400003220B89097B1B0443EA01610A43826067
:102F50000020704730B50268094B1A40D1E90134AE
:102F60002343D1E903452C4323434C69896943EA50
:102F7000442343EA413111430160002030BD000089
:102F80008901F0FF38B50A4D04464FF0AA306A4671
:102F9000009004230021A879604305F0EBFEA87996
:102FA000042300216A466043401C05F0E3FE38BD5F
:102FB000A8D501242DE9FC47254F00258946064662
:102FC00000240DF1040810E0CDF800804A4679880D
:102FD00070438B08002105F045FD7888BDF804108A
:102FE000B1EB900F04D1641CA4B2B879A042EBD825
:102FF000B879A04202D10020BDE8FC87304605F038
:10300000FDFA20B113A0294609F086FF16E0B9F1B8
:10301000FF3F13D000200AE07A8806FB00109308D7
:103020000022114605F07AFEBDF80400401CADF800
:103030000400B879BDF804108842EDD86D1CADB21B
:10304000032DBDD309A0314609F066FF0120D3E767
:10305000A8D501246572726F722065726173652054
:10306000626C6F636B3A25640D0A00006261642034
:10307000626C6F636B20636865636B65643A25649B
:103080000D0A000038B5114D044600206A468DF83F
:10309000000001230021A879604305F01BFD9DF885
:1030A0000000FF2801D0022038BDA87901230021AB
:1030B0006A466043401C05F00DFD9DF80000FF28A6
:1030C00001D0012038BD002038BD0000A8D5012462
:1030D0002DE9F84F91462F4A8A461D469179B0FB5B
:1030E000F1F3B0FBF1F801FB130B404600F0B8F828
:1030F000284907464889B84202D20120BDE8F88F26
:10310000002428E05C4516D3ADB14A88A2EB0A0141
:10311000A94201D28EB200E0AEB24B4607FB00419D
:1031200008FB00405246009605F0D6F8AD1B4FF064
:10313000000AB14405E007FB004108FB004005F030
:10314000ADF930B13846FFF71DFF012000F024F83B
:10315000CBE7641CA4B20F498879A042D2D80D46AF
:10316000A879A04214D1384600F028FA404605F06C
:1031700045FA6A890020696908E031F81040444541
:1031800002D121F8107003E0401C80B28242F4D8D2
:103190000020B3E7A8D50124F8B52A4D0021064642
:1031A0004FF6FF7003E06A6922F81100491C6A8932
:1031B0008A42F8D80020A88104461CE0A87904239C
:1031C00000216A46604305F085FC9DF80000FF2859
:1031D0000CD1B6B1A879012300216A466043401C96
:1031E00005F078FC9DF80000FF280AD016A02146C3
:1031F00009F092FE641C6989A142DFD86A69002047
:1032000016E09DF803109DF8020000EB012069898B
:10321000814202D9696921F81040A889401CA8811F
:10322000E8E732F810308B4201D3E88102E0401C1D
:103230008142F6D8E889642801D20220F8BD002036
:10324000F8BD0000A8D5012462616420626C6F6340
:103250006B20696E6465783A25640D0A00000000F1
:1032600070B5104E104C71892268491E914200D2EF
:10327000216000F001052068294600F017F8411C84
:103280000AD170892168401E884207D929462060EA
:1032900000F00CF8411C01D0206070BD4FF0FF30F1
:1032A00070BD0000A8D50124AC010024F8B5401C75
:1032B0000D4600210400009112D00C4F012626EA91
:1032C0000400A8420AD1B879611E04236A46484323
:1032D000002105F0FFFB0098401C04D0641EEED1D5
:1032E0004FF0FF30F8BD601EF8BD0000A8D50124E6
:1032F000F8B5254E00273C46B78113E02046FFF77E
:10330000C1FE70B9204605F079F938B11FA02146F9
:1033100009F002FE2046FFF735FE02E0B089401CAE
:10332000B081641C7089A042E8D8B1891BA009F063
:10333000F3FDB089642801D20120F8BDC0EB401034
:103340000097642100EB4000B0FBF1F5002410E091
:103350002046FFF797FE58B9B07902236A4619460E
:10336000604305F007FD0098401C0090A84203D080
:10337000641C7089A042EBD80120FFF70DFF0028E4
:10338000DBD00220F8BD0000A8D5012442616420F2
:10339000626C6F636B3A25640D0A0000676F6F649F
:1033A0005F626C6F636B6E756D3A25640D0A000089
:1033B00010B505F04FF900BB184C616911B1002040
:1033C00010F0BAF960894100002010F0C1F9606185
:1033D00061894900FDF78CF8606970B10120FFF741
:1033E000DBFE60B10EA009F097FDFFF781FF90B101
:1033F00011A009F091FD022010BD012010BD6189CE
:1034000012A009F089FDA18916A009F085FDE189C6
:1034100019A009F081FD002010BD0000A8D50124ED
:10342000666F726D6174206E616E6420666C61738C
:10343000682E2E2E0D0A0000666F726D6174206674
:1034400061696C6564210D0A00000000746F74618D
:103450006C20626C6F636B206E756D3A25640D0A8B
:1034600000000000676F6F6420626C6F636B206EFA
:10347000756D3A25640D0A0076616C696420626C92
:103480006F636B206E756D3A25640D0A00000000B5
:103490000549CA89824202D24FF6FF7070474969D6
:1034A00031F8100070470000A8D501242DE9FF5F16
:1034B00000269B461546824679E03F4C6088B0FB6B
:1034C000F5F1A079414301988319B3FBF1F0FFF7BF
:1034D000DFFF6189814203D8012004B0BDE8F09F7D
:1034E000354C6188A479B1FBF5F26243B3FBF2F786
:1034F00002FB17326A43B2FBF1F300FB0437B2FB65
:10350000F1F001FB1028A1EB0800B0FBF5F084B24C
:10351000ABEB0600A04200D284B252461FFA88F1FB
:10352000384604FB05F91FFA89F305F075F90328FD
:1035300009D11FFA89F352461FFA88F1384605F07F
:103540006BF9032804D004282ED068B30220C4E706
:103550001FFA88F14B4652463846FFF7B9FDDFF8AF
:1035600058804FF0FF3198F80600B7FBF0F0FFF7F6
:1035700021FD80B998F806000021B7FBF0F0FFF7B5
:1035800019FD814698F80600B7FBF0F005F036F813
:10359000B9F1000F08D098F80600B7FBF0F0FFF77C
:1035A000F1FC0120FFF7F8FD05FB04AA26445E4567
:1035B00083D3002091E70000A8D5012408B5CC21D1
:1035C0006A4601238DF8001003498979484319465A
:1035D00005F0D0FB08BD0000A8D501242DE9FF4F60
:1035E0000027154685B04FF0FF3B7BE0404C6088DC
:1035F000A179B0FBF5F048430699CB19B3FBF0F085
:10360000FFF746FF61898046414503D8012009B094
:10361000BDE8F08F364A50889279B0FBF5F15143FE
:10362000B3FBF1F401FB143101FB05FABAFBF0F333
:1036300008FB0231BAFBF0F202910899C91B039111
:103640008CB200FB12A9A0EB090080B2B0FBF5F030
:10365000ADF80400844200D304464FF0FF3201A8C5
:10366000009004FB05F61FFA89F10298C6F38F0358
:1036700005F0F8F908B10220C9E7BDF80400B0EB85
:10368000960F0FD1B3B2059A1FFA89F1029805F08F
:1036900095FA38B9C345414620D00846FFF78EFF5A
:1036A000C346D8B11248817940884143A1EB0A0052
:1036B0000399B0FBF5F08CB280B2ADF804008442FF
:1036C00000D30446059A1FFA89F1029804FB05F617
:1036D0003346FFF7FDFC08B1032098E7059827441F
:1036E000304405900898874280D300208FE700007F
:1036F000A8D5012470B5084D00240646082231469D
:1037000005EBC400FCF75FFF10F0FF0002D0641C63
:10371000022CF3DB70BD0000E80000242DE9F04727
:103720002C4F81460026154688463878012805D159
:1037300013460A4628A0494609F0EEFBB9F1450FA9
:1037400048461AD009DC41280FD042280FD0432820
:103750000FD0B9F1440F2BD10DE046280FD04728E8
:103760000FD0B9F1500F23D10DE0234C0EE0234CC4
:103770000CE0234C0AE0234C08E0234C06E0234CE9
:1037800004E0234C02E0302D10D08CB1012101FA6D
:1037900008F188B2302D804610D001220146204623
:1037A00001F09BF8387801280AD00FE008F060FE9D
:1037B000014618A009F0B0FB012607E00022EDE762
:1037C0001DA02B464246494609F0A6FB3046BDE8FF
:1037D000F0870000C80000244C4F473A204750496A
:1037E0004F25632050696E20256420736574207412
:1037F0006F2025640D0A00000000025800040258E2
:1038000000080258000C0258001002580014025818
:10381000001802584552524F523A204572726F7248
:1038200020506F72742047726F7570204E616D6505
:103830002025630D0A0000004C4F473A20475049AD
:103840004F25632050696E20307825782073657489
:1038500020746F2025630D0A0000000070B50D4D27
:103860000024012205A1286A0DF070FA00B9012494
:10387000286A0DF00BF9204670BD0000303A2F6425
:10388000616D65692F6175746F706C61792E7478E4
:10389000740000002C00002470B50D4D002401229E
:1038A00005A1286A0DF052FA00B90124286A0DF02A
:1038B000EDF8204670BD0000303A2F64616D6569F7
:1038C0002F6175746F73746F702E747874000000BC
:1038D0002C00002403490A78824201D1481C704719
:1038E00000207047505D0124002370B5002816DBCE
:1038F0000C4C65686D8A854211DD0B6006E0A66898
:103900000D6836F913605B1C35440D608342F6DBAD
:10391000A368096833F910000123084410601846B1
:1039200070BD000008010024052290FBF2F21F295F
:1039300001D8002007E02039C81701EB90708010F3
:10394000292800D3272002EB820100EBC1000349A4
:103950004968498A814200DC481E704708010024FA
:10396000034900204978C90700D0012070470000B2
:10397000306D0024034A0100B2F9000001D000219B
:10398000118070474801002403460229D05C03D10E
:10399000D118497801EB00207047042101EBC001E8
:1039A000C81701EBD0504012C90500D0401C704729
:1039B0000146C01701EBD0504012C90500D0401C91
:1039C0007047000040F2351110FB01F0024901EB95
:1039D000C000407D70470000306D00242DE9F047A5
:1039E000044640790027154601280E4609D04FF0BD
:1039F000010884F80580022020713068042803D073
:103A00003BE00220BDE8F0874FF003091DBB00F04A
:103A100069FFDFF8D0A0074604E000F063FFC01B99
:103A2000012810D82068406B10EA0A0FF5D1012058
:103A300000F016F92168B069086416E000F052FF42
:103A4000C01B012807D9206940F00800206184F8D4
:103A500004900320D6E72068406B0028EEDB0120AD
:103A600000F0FEF82168B0694864F0692168A84058
:103A70008864306A2168A840C8643069012808D188
:103A80002068826B1F21A9408A437169A9401143B4
:103A900081632068C26B0721B368A9408A433168FB
:103AA0001943F3681943A9401143C16320680168B1
:103AB0004FF48042AA40914301602068016840F6BB
:103AC000FE72AA4091437268AA400A4302602068CD
:103AD0000168C022AA409143016084F8048000205C
:103AE00060718FE70080002070B5040003D020795A
:103AF000002510B105E0012070BD2046657100F081
:103B000007F802202071256101202071002070BD7E
:103B1000104800B587B0016841F0005101600068AD
:103B200000F0005005900B480838016841F0010191
:103B300001600068694600F00100059030200090A7
:103B40000320019000200290034800F0C9FD07B057
:103B500000BD0000E84402580000025818B504688F
:103B600000940068104421B11430009003600020DC
:103B700018BD0830F9E730B54279012A12D0012387
:103B80004371022202710268146803FA01F52C43A2
:103B90001460002901680A6806D0C2F34442012A71
:103BA0000AD00DE0022030BDC2F34402012A07D141
:103BB0004A6842F0010202E04A6842F002024A60AA
:103BC000037100214171084630BD000010B528B1D5
:103BD00090F83510022903D080214165012010BDE5
:103BE0001D4A4FF4956301688C189C4207D8042243
:103BF00080F83520086820F00100086029E00C6892
:103C000024F00E040C6001680A440A6822F00102E4
:103C10000A60016E0A6822F480720A6090F85C30D3
:103C2000012202FA03F10D4B1960D0E919134B6020
:103C3000C16E31B10B6823F480730B60D0E91C13A3
:103C40004B60002180F8341080F83520016D01B1FF
:103C50008847002010BD0000F0FFFDBF045402584B
:103C600070B5044600F03EFE0546601C02D00448D4
:103C70000078044400F036FE401BA042FAD370BD29
:103C8000A001002470B5026E00F12C03456E53F8BC
:103C9000221025B1DC6B04B16D1C002423E001204F
:103CA00070BD0E690E604FF08076CE604E692EB109
:103CB0004E698E60CE6846F00076CE60CE6846F0E3
:103CC0000046CE601E6C1EB1CE6846F08046CE60C7
:103CD0009E6B761EA64205D9521C0C2A00D30C3AC4
:103CE00053F82210641CAC42DBD3006800F580500E
:103CF000C0F828110020986370BD10B500EB810456
:103D0000E46A0AB10C2903D301214167084610BDBA
:103D100022602261E06840F08070E0604BB1A360F7
:103D200040F000706361E06040F00040E06000201F
:103D300010BDE068F8E700297DD00268126802F043
:103D40000C02CA6202681268C2F3001281F82820CD
:103D50000268126802F060024A620268126842F366
:103D60000022521C81F8202002681268C2F340220F
:103D7000CA770268126842F38022521C8A7702686E
:103D80001268C2F3C0224A7702681268C2F3003296
:103D90000A770268126802F400528A6102681268A7
:103DA00002F480424A6102681268C2F300428A74D7
:103DB0000268126842F34042521C4A740268126858
:103DC00042F3C042521C0A7402681268C2F30052E5
:103DD000CA7302681268C2F340528A73026812689A
:103DE000C2F380524A7302681268C2F3C0520A7367
:103DF0000268126802F0E0628A6002681268C2F328
:103E0000C0620A710268126802F0E0420A60026849
:103E10005268C2F30D024A630268526842F30042DC
:103E2000521C81F8322002685268C2F3404281F885
:103E30003120026800E062E05268C2F3804281F8FB
:103E4000302002685268C2F3006281F838200268AC
:103E50005268C2F34462CA630268D268C2F30022A5
:103E600081F840200268D26802F00F024A640268BA
:103E7000126FC2F3400281F854200268126F42F3BD
:103E8000C012521C81F84C200268126F02F07002BE
:103E90000A650268126F120C8A640268D2F89020D8
:103EA00002F0010281F856200268D2F89020C2F395
:103EB000400281F855200268D2F8002D02F072020B
:103EC0008A650268D2F8302D02F02302CA650268C2
:103ED000D2F8302DC2F3C00281F862200268D2F815
:103EE000302DC2F3001281F861200068D0F8300D47
:103EF00040F38010401C81F86000002070470120D2
:103F000070472DE9F043066E00F12C080746406E1D
:103F10000C464FF0000958F8265018B9384600F002
:103F200063F9E8B3002017E0696939B3C4B32969BC
:103F3000216079696160A46894B3696921607969D5
:103F40006160E968761C0C2EC1F30E0900D30C3EAB
:103F5000A468401C58F82650D8F83810491E8142F1
:103F6000E2D8ECB1E868C0F30E01A1EB0900796971
:103F7000814205D32969C4E900100EE02969DDE713
:103F8000696969B12969216079696160A16839B19C
:103F90006A690A607A69801A48600020BDE8F08387
:103FA000FFE70120FAE770B500F12C040D46D4E9D3
:103FB0000D6111B900F018F968B1A06B761E30449C
:103FC0000C2800D30C3854F82000C068C0F30E0051
:103FD0002860002070BD012070BD0000F8B504000D
:103FE00003D094F8710010B104E00120F8BD204620
:103FF00000F05EF9232084F871007148016841F0F7
:1040000002010160006800F002000090207A08B10F
:104010004FF4000002F056FF206800F58050016860
:1040200041F00101016000F05DFCE02605464FF41F
:10403000FA7706E000F056FC401BB84201D9042094
:1040400049E0206800F580500068C007F2D1206880
:10405000D0F8000220F4706501F04AFC59495A4A30
:104060000144914202D245F4007516E05749584A7E
:104070000144914202D245F440750EE05549564A3A
:104080000144914209D3554908445549884202D216
:1040900045F4807501E045F480652068C0F8005261
:1040A00001F026FC4F49B0FBF1F02168401EC1F839
:1040B000DC002046FEF768FA206800F58050D0F852
:1040C000001121F4E01141F40021C0F800116169F0
:1040D000880704D00120606784F8716085E7206854
:1040E00000F58050D0F8082147F6FE739A4342EA63
:1040F0004101C0F8081100210A46E06801EB4103C4
:1041000000EBC30004EB8103491C026004294260F8
:104110008260C2609861F0D3A2620321206800F53A
:104120008050C0F82C112068E16800F58050C0F87C
:1041300014112068E16800F58050C0F820110021BA
:10414000206901EB410300EBC30004EB8103491C30
:1041500002600C2942608260C26002614261D862E2
:10416000EED3E2650B2122666266E266A2662068F3
:1041700000F58050C0F830112068216900F58050AA
:10418000C0F81C112168206901F5805100F5847088
:10419000C1F82801606821688088C1F80003606860
:1041A0000178D0F8010041EA00202168C1F8040339
:1041B0006267102084F8710084F872000020F8BD56
:1041C000F444025800D3CEFEC0E1E40040F1E9FD22
:1041D00040787D0100796CFC005A6202001F0AFAE7
:1041E00080F0FA0240420F00F0B5C16D2C3000257E
:1041F0002C462B46866B50F8212036B30020F0BDAC
:104200006D1CD60019D5641C012C00D10B46491C2D
:104210000C2900D30C3950F82120D268002A07DB82
:10422000520005D50122C263491C0C2900D30C3968
:10423000303080E81A000120F0BD920013D501242F
:104240000B46491C11E050F82120D268002A01DBFE
:104250000C2DD5D34CB350F8232000214FF080769D
:104260004FF040771FE0491C641C0C29EBD30C393C
:10427000E9E715691560D66055690DB19560D7609D
:10428000D56845F00045D560D0F840C0BCF1000FBE
:1042900002D045F08045D5605B1C0C2B00D30C3B55
:1042A000491C50F82320A142E3D300218163A5E7F4
:1042B0002C4800B587B0016841F001010160016838
:1042C00001F001010591016841F0040101600168FC
:1042D00001F004010591016841F0400101600068AE
:1042E00000F0400005901F480838016841F4004183
:1042F0000160016801F400410591016841F48031D9
:104300000160016801F480310591016841F40031D8
:1043100001600068002100F40030059086200090C4
:104320000220CDE9010103900B20049069460E485C
:1043300000F0D6F9322000900C48694600F0D0F920
:104340004FF4605000900A48694600F0C9F9002215
:1043500002213D2000F02AFC3D2000F019FC07B0AE
:1043600000BD0000E0440258000002580008025856
:10437000000402582DE9F041044600681F46D0F8B9
:104380000032DB0718D1D0F8003223F0787343EA0B
:10439000415121F4F81141EA024141F00D01C0F808
:1043A000001200F09FFA4FF47A76054607E000F01D
:1043B00099FA401BB04202D90120BDE8F081206883
:1043C000D0F80002C007F2D12068D0F8040280B211
:1043D00038600020F1E710B519B190F87220102A6A
:1043E00001D0012010BDFEF7EFFA002010BD000043
:1043F00070B505460068D0F8000220F4706401F042
:1044000077FA1149114A0144914202D244F40074EE
:1044100016E00F490F4A0144914202D244F440741D
:104420000EE00D490D4A0144914209D30C4908445C
:104430000C49884202D244F4807401E044F4806460
:104440002868C0F8004270BD00D3CEFEC0E1E40091
:1044500040F1E9FD40787D0100796CFC005A620270
:10446000001F0AFA80F0FA0210B590F871300021AE
:10447000C26A102B01D0012010BD232380F87130B7
:104480000023D468491C0C2944F08044D46000D334
:104490000C395B1C00EB81020C2BD26AF1D3012199
:1044A000C16601680A6842F002020A6001680A688F
:1044B00042F001020A600168D1F8002D42F00102C9
:1044C000C1F8002D016801F58051D1F8042142F0B6
:1044D0000102C1F80421016801F58051D1F80821D9
:1044E00042F00102C1F80821016801F58051D1F8BC
:1044F000602142F48172C1F86021102180F87110AE
:10450000222180F87210006800F58050D0F8341134
:104510004DF241021143C0F83411002010BD10B516
:1045200090F87110C26AE9B3232180F87110016814
:1045300001F58051D1F8343148F24104A343C1F868
:104540003431016801F58051D1F8043123F00103C1
:10455000C1F80431016801F58051D1F8083123F028
:104560000103C1F8083101680B6823F001030B60F7
:104570000168D1F8003D43F00103C1F8003D016836
:104580000B6823F002030B600021D368491C0C293F
:1045900023F08043D360F8D30021C166102180F856
:1045A000711000E003E080F87210002010BD0120BF
:1045B00010BD2DE9F0411546044621B194F8710073
:1045C000102804D04FE0606F40F0010007E00022A7
:1045D0002046FEF745F820B1606F40F002006067AA
:1045E00041E0A06A04EB8001401C04288E69A062AF
:1045F00001D3001FA06204EB80008169206800F5F0
:104600008050C0F8201100F06DF907464FF01008F7
:104610001AE0206800F58050D0F86001C0040BD586
:10462000606F40F008006067206800F58050D0F8A7
:104630006001A067E02014E0681C05D000F052F98A
:10464000C01BA84208D83DB1F0680028E1DB84F81F
:1046500071800020BDE8F081606F40F00400606769
:10466000404684F871000120F4E7000070B505466B
:104670000068D0F80042E4071FD1D0F8000220F013
:10468000787040EA4150114920F4F81040EA0240A5
:1046900020F00C00001D9AB2C1F8042240F0010085
:1046A000C1F8000200F01EF94FF47A76044606E0E5
:1046B00000F018F9001BB04201D9012070BD286834
:1046C000D0F80002C007F3D170BD000000800240A6
:1046D0000248016841F00101016070472004005860
:1046E0002DE9F84F6C4C00224FF0B04A4FF0010B0F
:1046F0004FF0030E4FF00F090B680BFA02F73B4027
:10470000BB4270D14D68022D01D0122D12D1D508B7
:1047100000EB850CDCF820605507ED0E09FA05F872
:1047200026EA0806D1F8108008FA05F848EA0608D3
:10473000CCF82080D0F80080560091F804C00EFA22
:1047400006F50CF0030C28EA05080CFA06FC4CEA06
:10475000080CC0F800C0D1F804C0BCF1010F08D0AB
:10476000BCF1020F05D0BCF1110F02D0BCF1120F49
:1047700016D1D0F808C0D1F80C802CEA050C08FA44
:1047800006F848EA0C08C0F80880D0F804C02CEA03
:10479000070C0F79C7F30017974047EA0C074760EB
:1047A000C768AF438D68B5403D43C5604D68ED00B7
:1047B0006BD53A4D2E6846F002062E602D6822F029
:1047C000030606F1B04605F002050095D6F808C4C8
:1047D00095072F0F09FA07F52CEA050C304DA84272
:1047E00002D100252EE050E02E4DA84201D1012536
:1047F00028E02D4DA84201D1022523E02B4DA842EF
:1048000001D103251EE02A4DA84201D1042519E05B
:10481000284DA84201D1052514E0274DA84201D119
:1048200006250FE0254DA84201D107250AE0244DB9
:10483000A84201D1082505E0224DA84201D1092551
:1048400000E00A25BD4045EA0C05C6F80854256875
:104850004E689D43F60300D51D43256065684E688C
:104860009D43B60300D51D436560DAF800505646F7
:104870004F689D43FF0200D51D43356075684F6842
:104880009D43BF0200D51D437560521C102AFFF4E2
:1048900033AFBDE8F88F000080000058F4440258A0
:1048A000000002580004025800080258000C025888
:1048B000001002580014025800180258001C025838
:1048C00000200258002402580069084000D001204E
:1048D000704742694A40426170470AB1018370479C
:1048E000418370470148806870470000A0010024A0
:1048F000024881680278114481607047A001002459
:10490000032010B500F072F90F2000F007F808B18D
:10491000012010BD00F06CF8002010BD70B50D4DE9
:1049200004464FF47A712878B1FBF0F00A4909681F
:10493000B1FBF0F002F0DCFA48B9102C07D20022EB
:104940002146501E00F032F900206C6070BD01203D
:1049500070BD0000A001002424000024134A417807
:104960001160111D03780A1DE3B143680B60017BE0
:10497000C37A090741EA0361837A41EAC341437B71
:1049800041EA8341837B41EA4341C37B41EA0341DE
:10499000437A41EA0321037A007841EA4301014363
:1049A00011607047002008601060704798ED00E0CB
:1049B000BFF35F8F0448016821F480310160024930
:1049C000002070310860704724ED00E0074940F096
:1049D0000100086005487038016841F480310160C9
:1049E000BFF34F8FBFF36F8F7047000094ED00E06F
:1049F0007047000070B5040015460E4603D094F8C9
:104A0000210010B107E0012070BD002084F82000D3
:104A1000204600F01FF82068211DFEF79BFAD4E91C
:104A200000023146FEF788FAD4E900022946FEF773
:104A300075FA2068016841F00401016004480168CA
:104A400041F000410160012084F82100002070BD88
:104A5000004000522848F0B5016887B041F4805109
:104A60000160006800F48050059023480C30016814
:104A700041F008010160016801F008010591016839
:104A800041F010010160016801F010010591016819
:104A900041F0040101600068002402AA174F00F0F1
:104AA0000400059040206946CDE90004012003255B
:104AB000092682E861003846FFF712FE01AA69461E
:104AC0004FF480700090022082E871003846FFF7B2
:104AD00007FE0C2004904DF633000090084869460C
:104AE0000294FFF7FDFD4FF4F06000900548694621
:104AF000FFF7F6FD07B0F0BDD44402580008025895
:104B0000000C0258001002587CB50023009301935A
:104B100090F82020012A28D0012580F8205090F814
:104B20002120022A21D0EA07022480F82140164CD5
:104B300090262670BFF34F8F144C2370BFF34F8F16
:104B4000C468A4B114680094126901920C70009AB0
:104B5000120C4A70019A8A70019A120CCA7080F87D
:104B6000215080F8203000207CBD02207CBD1268DE
:104B700000920A70009A120A4A70009A120C8A7007
:104B8000009A120EEAE70000000001800000028097
:104B9000002809DB012100F01F029140400980003C
:104BA00000F1E020C0F80011704700000E4BF0B497
:104BB0001B68C3F30223C3F10704042C00D90424A7
:104BC0001D1D072D01D2002300E0DB1E012606FA81
:104BD00004F56D1E0D409D409E40761E164045EA30
:104BE0000601F0BC08F0CCB90CED00E0064A00F07C
:104BF000070110684FF6FF03184040EA01200349FF
:104C000008431060704700000CED00E00000FA055A
:104C100010B500F0B3FE084909684FF4807292FAAB
:104C2000A2F201F47061B2FA82F2D140034A515CFF
:104C3000C8400349086010BD1844025804700108B8
:104C40002400002410B500F053FE07490968102223
:104C500092FAA2F201F07001B2FA82F2D140034A54
:104C6000515CC84010BD0000204402580470010887
:104C7000364930B50A68096812F00302344BC1F3B3
:104C800005311B68334C03F010032468DFED320A52
:104C9000B7EE001AC4F3CC0414FB03F300EE103A91
:104CA0002E4BB8EE400A07D02D4C012A01D0022A23
:104CB0004AD0B4FBF1F10BE0244C283C2268950665
:104CC000284A03D52468C4F3C104E240B2FBF1F1E1
:104CD00001EE901A1968B8EE612AC1F3080101EEDD
:104CE000901A1968F8EE611A40EE201A31EE810A26
:104CF00022EE000AC1F34621491C00EE901AF8EE9C
:104D0000600A80EE201AFCEEC10AC0ED000A1968A4
:104D1000C1F30641491C00EE901AF8EE600A80EEDD
:104D2000201AFCEEC10AC0ED010A1968C1F3066140
:104D3000491C00EE901AF8EE600A80EE201ABCEED4
:104D4000C10A80ED020A30BD074ABFE72844025875
:104D50002C4402583C4402580000003938440258A0
:104D600000093D000090D00340787D01364930B500
:104D70000A68096812F00302344BC1F305511B683D
:104D8000334C03F480732468DFED320AB7EE001A67
:104D9000C4F3CC0414FB03F300EE103A2E4BB8EE30
:104DA000400A07D02D4C012A01D0022A4AD0B4FB78
:104DB000F1F10BE0244C283C22689506284A03D5E3
:104DC0002468C4F3C104E240B2FBF1F101EE901A91
:104DD0001968B8EE612AC1F3080101EE901A19684A
:104DE000F8EE611A40EE201A31EE810A22EE000A36
:104DF000C1F34621491C00EE901AF8EE600A80EEDD
:104E0000201AFCEEC10AC0ED000A1968C1F3064180
:104E1000491C00EE901AF8EE600A80EE201AFCEEB3
:104E2000C10AC0ED010A1968C1F30661491C00EE10
:104E3000901AF8EE600A80EE201ABCEEC10A80EDEE
:104E4000020A30BD074ABFE7284402582C440258E2
:104E500044440258000000394044025800093D0013
:104E60000090D00340787D012DE9F84F044600689A
:104E700000252E46010104F12400FE4FDFF8F883DF
:104E800000901DD5606E50B1B0F5801F0CD0B0F50C
:104E9000001F0ED0B0F5401F1DD001250FE038686F
:104EA00040F40030386016E00221201D05F0EEFCD1
:104EB00003E00098022105F061FD05000BD02E46AD
:104EC0002088C00523D5606D05281ED2DFE800F0DC
:104ED0000C11161B1B00D8F80010626E21F4401153
:104EE0001143C8F80010EBE7386840F40030386030
:104EF00009E00021201D05F0C9FC03E00098002115
:104F000005F03CFD05466DB100E001252E432088EB
:104F1000800528D5A06D80281ED00CDC90B14028DB
:104F20000ED114E0D8F80010626D21F00701114392
:104F3000C8F80010EBE7C02813D0B0F5807F10D080
:104F400001250FE0386840F40030386009E00021A6
:104F5000201D05F09BFC03E00098002105F00EFDEC
:104F6000054685B12E432088DFF8109340052CD5E7
:104F7000D4F8A400B0F5800F20D00DDCA0B1B0F5BE
:104F8000001F0FD115E0D8F80010A26D21F4E071D8
:104F90001143C8F80010E6E7B0F5C00F13D0B0F524
:104FA000000F10D001250FE0386840F40030386061
:104FB00009E00021201D05F069FC03E000980021B4
:104FC00005F0DCFC054675B12E43208800052DD583
:104FD000D4F8A800B0F1007F21D00EDCA8B1B0F168
:104FE000807F10D116E0D9F80010D4F8A42021F465
:104FF00060011143C9F80010E7E7B0F1407F13D01A
:10500000B0F1806F10D001250FE0386840F4003017
:10501000386009E00021201D05F038FC03E000980D
:10502000002105F0ABFC05466DB12E4320688001E0
:105030001FD5A06CD8B110280FD0202812D030284E
:1050400015D0012514E0D9F80010D4F8A82021F0DB
:10505000E0611143C9F80010E8E7386840F4003017
:10506000386004E00221201D05F010FC05466DB1FA
:105070002E432088C0042BD5E06DB0F5005F20D012
:105080000DDCA0B1B0F5805F0FD115E07A48001FAC
:105090000168A26C21F0300111430160E9E7B0F52D
:1050A000405F13D0B0F5804F10D001250FE0386875
:1050B00040F40030386009E00021201D05F0E6FBD7
:1050C00003E00098002105F059FC054685B12E4308
:1050D0002088800429D5206EB0F5403F23D010DC15
:1050E00008B3B0F5803F14D0B0F5003F0FD115E004
:1050F000D8F80010E26D21F4E0411143C8F8001027
:10510000E6E7B0F5802F0ED0B0F5A02F0BD001252B
:105110000AE00121201D05F0B9FB03E00098012100
:1051200005F02CFC05468DB12E43208840042AD57D
:10513000D4F8AC00B0F1405F23D010DC08B3B0F17C
:10514000805F14D0B0F1005F0FD115E0D8F80010E7
:10515000226E21F4E0211143C8F80010E5E7B0F118
:10516000804F0ED0B0F1A04F0BD001250AE00121F5
:10517000201D05F08BFB03E00098012105F0FEFBEC
:1051800005466DB12E43208800041FD5E06ED8B1CE
:10519000B0F1805F0ED0B0F1005F10D0012514E0B7
:1051A000D9F80010D4F8AC2021F0E0411143C9F83F
:1051B0000010E8E7386840F40030386004E001216E
:1051C000201D05F063FB05466DB12E432068C0012C
:1051D0001ED5606CD0B101280ED0022811D0032852
:1051E00014D0012513E0D8F80010E26E21F04051F0
:1051F0001143C8F80010E9E7386840F4003038601F
:1052000004E00221201D05F041FB054675B12E4347
:105210002068DFF86CB040025AD51A48016841F4A2
:1052200080710160FFF75EFB82460EE01248001FAE
:105230000168626C21F0030111430160E8E7FFF7A8
:1052400051FBA0EB0A0064283AD80E480068C0055C
:10525000F5D5B5BB094818300068B4F8B01000F4B3
:10526000407001F44071884219D004481830016838
:105270000AE000002C440258504402585844025896
:105280001044025800480258026821F4407142F468
:1052900080320260026822F4803202600160D4F839
:1052A000B000B0F5807F22D1FFF71CFB824609E0F9
:1052B000FFF718FBA0EB0A0141F28830814201D9C7
:1052C000032504E0FE4800688007F1D57DB12E4338
:1052D0002078DFF8F0A3C0073CD0A06F182837D0A3
:1052E00025DC78B3082828D0102824D12BE0D4F866
:1052F000B000C0F3012103290ED0DBF8001021F427
:105300007C51CBF80010EE480168B4F8B020C2F32D
:105310000B0211430160DBE7DBF80020EA4B22F4CB
:105320007C5203EA10100243CBF80020EBE7202860
:105330000ED028280CD001250BE00121201D05F0FE
:10534000A5FA04E004E00098012105F017FB0546EA
:105350005DB12E43207880071ED5606F062819D2D4
:10536000DFE800F0160C11161616DAF80010A26F1E
:1053700021F038011143CAF80010EBE70121201D8C
:1053800005F084FA03E00098012105F0F7FA0546DC
:1053900075B100E001252E43207840071FD5D4F8D1
:1053A0009000062819D2DFE800F0160C1116161628
:1053B000DAF80010626F21F007011143CAF80010FB
:1053C000EAE70121201D05F061FA03E000980121C0
:1053D00005F0D4FA05469DB100E001252E43207862
:1053E00080062BD5D4F88C00B0F1405F24D011DCBE
:1053F00010B3B0F1805F15D0B0F1005F10D116E0AE
:10540000D9F80010D4F8902021F007011143C9F811
:105410000010E4E7B0F1804F0ED0B0F1A04F0BD0F8
:1054200001250AE00021201D05F030FA03E0009874
:10543000022105F0A3FA05468DB12E4320784006DF
:105440002BD5D4F89800B0F5406F24D011DC10B300
:10545000B0F5806F15D0B0F5006F10D116E0DAF816
:105460000010D4F88C2021F0E0411143CAF800105C
:10547000E4E7B0F5805F0ED0B0F5A05F0BD001255A
:105480000AE00021201D05F001FA03E00098022146
:1054900005F074FA05468DB12E43207800062BD511
:1054A000D4F89C00B0F5C04F24D011DC10B3B0F597
:1054B000005F15D0B0F5804F10D116E0D9F800107C
:1054C000D4F8982021F4E0511143C9F80010E4E722
:1054D000B0F5004F0ED0B0F5204F0BD001250AE0FB
:1054E0000021201D05F0D2F903E00098022105F00B
:1054F00045FA054665B32E43207800070BD5D4F84E
:105500008000B0F5805F2DD0DAF8002022F4405200
:105510000243CAF800202078C0060BD5D4F89400C6
:10552000B0F5807F24D0D9F8002022F440720243E5
:10553000C9F80020206800032CD5D4F8A000E8B1F9
:10554000B0F5803F1FD0B0F5003F21D0012520E00D
:10555000D9F80010D4F89C2021F460411143C9F817
:105560000010C9E70098022105F008FA0643D2E7C7
:105570000098022105F002FA0643DBE70021201D16
:1055800005F084F903E00098022105F0F7F90546DB
:1055900085B12E432068400322D5D4F88400B0F5AD
:1055A000801F11D0B0F5001F13D0B0F5401F15D0EB
:1055B000012514E0D9F80010D4F8A02021F44031DE
:1055C0001143C9F80010E5E7386840F4003038604E
:1055D00004E00098012105F0D1F9054655B12E43AC
:1055E0002068C0031CD5E06C70B1B0F5803F10D0CE
:1055F000012514E0DAF80010D4F8842021F44011D9
:105600001143CAF80010EBE7386840F40030386006
:1056100004E00221201D05F039F90546C5B12E43ED
:105620002068800004D50098022105F0A7F9064300
:10563000206880031BD5E06FB8B1B0F5807F10D033
:10564000B0F5007F11D0B0F5407F0ED001250DE000
:105650001C4808380168E26C21F480311143016074
:10566000DEE7386840F40030386045B32E432068E8
:10567000C00207D5D8F80000226F20F00040104388
:10568000C8F800002068C00008D5DBF80010D4F886
:10569000B42021F480411143CBF80010206880022F
:1056A00007D5D8F80010A26E21F080711143C8F818
:1056B00000102068400014D5DBF8001006E01EE062
:1056C0007044025854440258CFFFFF0021F40041B7
:1056D000CBF80010DBF80010D4F8B8201143CBF859
:1056E00000102068002806DA0A480168226D21F0BF
:1056F0004051114301605EB10120BDE8F88FDAF836
:105700000010E26F21F440711143CAF80010AEE7B7
:105710000020F2E74C4402582DE9F047DFF8BC9135
:1057200004460E46D9F8000000F00700B0420CD243
:10573000D9F8001021F007013143C9F80010D9F859
:10574000000000F00700B0427ED12078DFF89081A1
:10575000800707D5D8F80010E26821F00F01114347
:10576000C8F800102078C00762D0D8F80010A268EE
:1057700021F470611143C8F8001059496068183964
:1057800002281CD003281DD0096801281DD0490714
:10579000002960DA524F083F396821F007010143C0
:1057A0003960FFF79FF80546606841F288310228AA
:1057B00013D003281ED001288A4627D034E0096878
:1057C0008903E5E709688901E2E7C905E0E7FFF732
:1057D00089F8411B514501D923E08A463868C0F356
:1057E000C2000228F3D123E0FFF77CF8411B5145AA
:1057F00001D916E08A463868C0F3C2000328F3D105
:1058000016E0FFF76FF8411B51450AD83868C0F31E
:10581000C2000128F5D10BE0FFF764F8411B5145A8
:1058200002D90320BDE8F087386810F0380FF3D1B3
:10583000D9F80010484601F00701B1420DD90168BE
:1058400021F00701314300E005E00160006800F04D
:105850000700B04201D00120E4E72078400707D5D7
:10586000D8F80010226921F070011143C8F8001027
:10587000207801071B4805D50168626921F0700195
:10588000114301602178C90605D50168A26921F498
:10589000E061114301602078800607D51149091D98
:1058A0000868E26920F070001043086000F066F8B4
:1058B000D8F800104FF4807292FAA2F201F47061ED
:1058C000B2FA82F2D140084A515CC84007490860E8
:1058D0000F20FFF723F80020A4E70000002000526B
:1058E000184402581C440258047001082400002483
:1058F00010B5FFF78DF908490968012292FAA2F262
:1059000001F00F01B2FA82F2D140044A515CC84062
:105910000349086010BD00001844025804700108D3
:105920002800002410B5FFF7E3FF0749096810229B
:1059300092FAA2F201F07001B2FA82F2D140034A67
:10594000515CC84010BD00001C440258047001089E
:1059500010B5FFF7CDFF074909684FF4807292FA3E
:10596000A2F201F4E061B2FA82F2D140024A515C43
:10597000C84010BD1C440258047001083548F0B5F9
:105980000068364D10F03801334809D00411082959
:1059900004D0334E10290BD018290BD02046F0BD6F
:1059A00029688906FBD52968C1F3C101C840F0BD4B
:1059B0003046F0BD274918310A68096812F0030221
:1059C000284BC1F305111B68274F03F001033F6803
:1059D000DFED260AB7EE001AC7F3CC0717FB03F377
:1059E00000EE103A224BB8EE400A06D0012A01D050
:1059F000022A2BD0B4FBF1F008E02A68920603D506
:105A00002A68C2F3C102D040B0FBF1F001EE900A67
:105A10001868B8EE612AC0F3080001EE900A186811
:105A2000F8EE611A40EE201A31EE810A22EE000AE9
:105A3000C0F34620401C00EE900AF8EE600A80EEAB
:105A4000201ABCEEC10A10EE100AF0BDB6FBF1F050
:105A5000DCE70000104402580090D00300440258D4
:105A600040787D012C44025834440258000000392B
:105A7000304402582DE9F05F04460078DFF8FC83DB
:105A800041F28839DFF8F8A3FE4DC0074ED0D8F8B0
:105A900000104046C1F3C20102291AD00068C0F3C9
:105AA000C200032805D1DAF8000000F00300022844
:105AB0000FD06068B0F5803F12D010B1B0F5A02FC4
:105AC00019D0286820F480302860286820F48020CD
:105AD00009E02868800329D56068002874D025E093
